:100000000C9472000C949A000C949A000C949A0030
:100010000C949A000C949A000C949A000C949A00F8
:100020000C949A000C949A000C949A000C949A00E8
:100030000C949A000C949A000C949A000C949A00D8
:100040000C947E0B0C949A000C944C0B0C94260B85
:100050000C949A000C949A000C949A000C949A00B8
:100060000C94C80B0C949A00000000002400270098
:100070002A0000000000250028002B0000000000DE
:1000800023002600290004040404040404040202DA
:100090000202020203030303030301020408102007
:1000A0004080010204081020010204081020000012
:1000B0000008000201000003040700000000000027
:1000C00000001F1C1F1E1F1E1F1F1E1F1E32303A46
:1000D00030333A32370044656320313720323032D2
:1000E0003300F40C11241FBECFEFD8E0DEBFCDBF2C
:1000F00023E0A4ECB1E001C01D92AE3DB207E1F7F0
:1001000011E0A0E0B1E0EAE9F7E302C005900D924A
:10011000A43CB107D9F710E0C2E7D0E004C02197B2
:10012000FE010E94971AC137D107C9F70E944A0DF4
:100130000C94CB1B0C94000008950895DC01ED9104
:10014000FC910190F081E02D0994AF92BF92CF9283
:10015000DF92EF92FF920F931F93CF93DF936C0187
:100160007B018B01040F151FEB015E01AE18BF0868
:10017000C017D10759F06991D601ED91FC9101901A
:10018000F081E02DC6010995892B79F7C501DF9132
:10019000CF911F910F91FF90EF90DF90CF90BF9084
:1001A000AF900895FC01538D448D252F30E0842FAE
:1001B00090E0821B930B541710F0CF96089501978F
:1001C0000895FC01918D828D981761F0A28DAE0F7C
:1001D000BF2FB11D5D968C91928D9F5F9F73928F03
:1001E00090E008958FEF9FEF0895FC01918D828D2F
:1001F000981731F0828DE80FF11D858D90E00895FC
:100200008FEF9FEF0895FC01918D228D892F90E053
:10021000805C9F4F821B91098F739927089589E114
:1002200093E00E94030121E0892B09F420E0822F52
:10023000089580E090E0892B29F00E940F01811140
:100240000C9400000895FC01A48DA80FB92FB11DD6
:10025000A35ABF4F2C91848D90E001968F739927FC
:10026000848FA689B7892C93A089B1898C918370DA
:1002700080648C93938D848D981306C00288F389D3
:10028000E02D80818F7D80830895EF92FF920F9300
:100290001F93CF93DF93EC0181E0888F9B8D8C8D32
:1002A00098131AC0E889F989808185FF15C09FB726
:1002B000F894EE89FF896083E889F98980818370E9
:1002C000806480839FBF81E090E0DF91CF911F9198
:1002D0000F91FF90EF900895F62E0B8D10E00F5FB9
:1002E0001F4F0F731127E02E8C8D8E110CC00FB68F
:1002F00007FCFACFE889F989808185FFF5CFCE0127
:100300000E942301F1CFEB8DEC0FFD2FF11DE35A7D
:10031000FF4FF0829FB7F8940B8FEA89FB898081A9
:100320008062CFCFCF93DF93EC01888D8823B9F023
:10033000AA89BB89E889F9898C9185FD03C08081F0
:1003400086FD0DC00FB607FCF7CF8C9185FFF2CF6D
:10035000808185FFEDCFCE010E942301E9CFDF919F
:10036000CF910895833081F028F4813099F0823064
:10037000A9F008958730A9F08830C9F08430B1F42D
:10038000809180008F7D03C0809180008F77809363
:100390008000089584B58F7784BD089584B58F7DDE
:1003A000FBCF8091B0008F778093B000089580914B
:1003B000B0008F7DF9CFCF93DF93282F30E0F90184
:1003C000E255FF4F8491F901E656FF4FD491F901B0
:1003D000EA57FF4FC491CC23A1F081110E94B201D2
:1003E000EC2FF0E0EE0FFF1FE458FF4FA591B49102
:1003F000EC91ED2381E090E009F480E0DF91CF9172
:10040000089580E090E0FACF1F93CF93DF93282FD9
:1004100030E0F901E255FF4F8491F901E656FF4FB4
:10042000D491F901EA57FF4FC491CC23A9F0162FBC
:1004300081110E94B201EC2FF0E0EE0FFF1FEE5889
:10044000FF4FA591B4918FB7F894EC91111108C0AA
:10045000D095DE23DC938FBFDF91CF911F9108955C
:10046000DE2BF8CFCF93DF9390E0FC01E656FF4FF1
:1004700024918A579F4FFC0184918823C9F090E012
:10048000880F991FFC01E859FF4FA591B491FC0119
:10049000EE58FF4FC591D49161110DC09FB7F894EC
:1004A0008C91209582238C938881282328839FBF59
:1004B000DF91CF910895623051F49FB7F8943C9149
:1004C000822F809583238C93E8812E2BEFCF8FB7DB
:1004D000F894EC912E2B2C938FBFEACF3FB7F89472
:1004E00080910B0290910C02A0910D02B0910E022E
:1004F00026B5A89B05C02F3F19F00196A11DB11D7F
:100500003FBFBA2FA92F982F8827BC01CD01620FBA
:10051000711D811D911D42E0660F771F881F991F75
:100520004A95D1F708958F929F92AF92BF92CF9242
:10053000DF92EF92FF924B015C010E946E026B0111
:100540007C010E946E026C197D098E099F09683E2C
:10055000734081059105A8F321E0821A9108A10852
:10056000B10888EEC80E83E0D81EE11CF11C81148E
:100570009104A104B10429F7FF90EF90DF90CF9090
:10058000BF90AF909F908F9008952091E701260F24
:100590003327331F21323105ECF42091EF02FC01A7
:1005A00090E080E0243069F082E00895A091E701B6
:1005B0002191AC0149535E4FA40FB52FB11D2C936F
:1005C0000196861798F38091E701680F6093E70121
:1005D00080E0089581E008951092EF0281E0809319
:1005E000EE021092C90261E082E10E94040261E021
:1005F00083E10E940402E9EBF0E080818E7F80833A
:1006000080818D7F808388E48093B80085E4809327
:10061000BC000895CF93DF9391E09093C6018823A7
:10062000B9F0C091B800D091BA008091BC008A7B2B
:100630008093BC0060E082E10E94040260E083E1FC
:100640000E9404020E94EC02D093BA00C093B8004A
:10065000DF91CF9108958F929F92AF92BF92CF92E8
:10066000DF92EF92FF920F931F93CF93DF93D0917E
:100670001803D13208F0D7C0182FC09117030E9479
:100680006E026B017C018091EF0281116BC082E0F0
:100690008093EF021093EE028FEF8093ED021092A1
:1006A000EC02D093EB02A7EFB2E0EBECF2E080E0DB
:1006B000D81391C01092CA028091CA02CC0FC82BE5
:1006C000C093CA028091C902813009F088C010929B
:1006D000C9020E946E026B017C018091CA02809364
:1006E000BB008091F1029091F202A091F302B091CF
:1006F000F402892B8A2B8B2BA1F00E946E020091B1
:10070000F1021091F2022091F3023091F4026C197F
:100710007D098E099F09061717072807390708F46E
:1007200042C08091BC0083FDD8CF85EC8093BC0093
:100730000E946E026B017C018091EF02823009F40D
:1007400050C08091ED028F3F09F46FC08091ED029F
:10075000803209F46CC08091ED02803309F469C0E5
:1007600084E026C08091F1029091F202A091F30200
:10077000B091F402892B8A2B8B2B09F484CF0E9431
:100780006E028090F1029090F202A090F302B0907D
:10079000F4026C197D098E099F0986169706A80632
:1007A000B90608F070CF8091F0020E940A0385E03C
:1007B0001092F602109218031092F502DF91CF9179
:1007C0001F910F91FF90EF90DF90CF90BF90AF906F
:1007D0009F908F9008959D9191938F5F69CF85EE43
:1007E000A5CF8091F1029091F202A091F302B09115
:1007F000F402892B8A2B8B2B09F49ECF0E946E0268
:100800000091F1021091F2022091F3023091F40272
:100810006C197D098E099F090617170728073907E4
:1008200008F08ACFC0CF81E0C3CF80E0C1CF82E0A3
:10083000BFCF83E0BDCF0895E091A8028091A702C9
:10084000E81730F4F0E0E755FD4F808190E008951F
:100850008FEF9FEF08959091A8028091A7022FEF4C
:100860003FEF981748F4E92FF0E0E755FD4F20815E
:1008700030E09F5F9093A802C90108958091A7027C
:100880009091A802891B990B0895CF92DF92EF9265
:10089000FF920F931F93CF93DF937C01CB018A01CB
:1008A0002091F502222389F0EB016B01C40ED51EC5
:1008B000CC15DD0569F06991D701ED91FC910190AE
:1008C000F081E02DC7010995F3CF642F0E94C50286
:1008D000C801DF91CF911F910F91FF90EF90DF90B2
:1008E000CF900895CF93DF931F92CDB7DEB7698382
:1008F0002091F5022223F9F020911803203258F0BC
:1009000021E030E0FC013383228390E080E00F900F
:10091000DF91CF9108958091F602E82FF0E0E95041
:10092000FD4F998190838F5F8093F6028093180327
:1009300081E090E0ECCF61E0CE0101960E94C5021B
:10094000F7CFCF93DF93EC018B818823A1F08881CF
:1009500091E09093F502809317031092F6021092A3
:10096000180381E00E942B0391E0811190E0892F10
:10097000DF91CF9108951092A8021092A7021092D1
:10098000F602109218030E94EC028CE990E090931A
:100990001202809311028DE990E0909310028093EF
:1009A0000F0281E08B83CE010E94A104982F811158
:1009B000CECFDDCF089590E080E00895FC0140891E
:1009C00051899AE0949F9001959F300D112442899E
:1009D0005389240F351F60E17EE0269FA001279FE9
:1009E000500D369F500D112466897789969F90018E
:1009F000979F300D1124608D718D260F371F8CE36A
:100A0000829FB001839F700D1124460F571F648D84
:100A1000758D969F9001979F300D1124868D978D2F
:100A2000820F931F840F951F0895FC01408151810F
:100A30009AE0949F9001959F300D1124428153813B
:100A4000240F351F60E17EE0269FA001279F500DF7
:100A5000369F500D112466817781969F9001979F54
:100A6000300D112460857185260F371F8CE3829F1E
:100A7000B001839F700D1124460F571F6485758543
:100A8000969F9001979F300D112486859785820F40
:100A9000931F840F951F08952F923F924F925F925C
:100AA0006F927F928F929F92AF92BF92CF92DF927E
:100AB000EF92FF920F931F93CF93DF935C011B0183
:100AC0006A01F12CE12CD50114968D919C9186013F
:100AD0000E191F098017910708F48C01F501D081C8
:100AE0000E946E022B013C018091EF02811172C0C5
:100AF000C02F013208F0C0E2F1E0F093EF0221E0F4
:100B0000C601801B910BE816F90608F420E020933B
:100B1000EE028FEF8093ED021092EC028C0F809327
:100B2000EB02A1E0A093CA028091CA02DD0FD82B8C
:100B3000D093CA028091C902813009F090C010920E
:100B4000C9020E946E022B013C018091CA0280936F
:100B5000BB008091F1029091F202A091F302B0915A
:100B6000F402892B8A2B8B2BA1F00E946E0220911C
:100B7000F1023091F2024091F3025091F4026419B3
:100B8000750986099709261737074807590708F492
:100B900042C08091BC0083FDD8CFB5ECB093BC00BF
:100BA0000E946E022B013C018091EF02813009F41A
:100BB0005AC08091EC028C1710F4C091EC02ABEC9F
:100BC000B2E0E9EAF2E080E08C1751F19D91919357
:100BD0008F5FFACF8091F1029091F202A091F3021F
:100BE000B091F402892B8A2B8B2B09F47DCF0E94C4
:100BF0006E022091F1023091F2024091F302509185
:100C0000F4026419750986099709261737074807FA
:100C1000590708F069CF8091F0020E940A03C0E0F2
:100C20001092A802C093A702C017110609F057C07E
:100C300041018E0C9F1CE401CE018819990980178F
:100C4000910798F5D50111968D919C91DC01ED915C
:100C5000FC910284F385E02D09958993EDCFE5EEB3
:100C6000E093BC009DCF8091F1029091F202A0919F
:100C7000F302B091F402892B8A2B8B2B09F494CFC9
:100C80000E946E022091F1023091F2024091F30233
:100C90005091F402641975098609970926173707D8
:100CA0004807590708F080CFB6CFE00EF11EEC14CC
:100CB000FD0408F408CF81E0DF91CF911F910F91DF
:100CC000FF90EF90DF90CF90BF90AF909F908F906C
:100CD0007F906F905F904F903F902F90089580E0AD
:100CE000EBCF1F93CF93DF93DC011496ED91FC9132
:100CF000E417F50710F490E01FC0122FEA01FC0181
:100D000081819281208131E03093F5022093170395
:100D10001092F60210921803DC01ED91FC91028012
:100D2000F381E02D0995C817D90729F7812F0E9473
:100D30002B0391E08111DFCF892FDF91CF911F919C
:100D40000895EF92FF920F931F93CF93DF9300D0FC
:100D500000D000D01F92CDB7DEB78C011982E09091
:100D6000A502F090A60220E041E050E0BE016F5FD6
:100D70007F4FC7010E947106882341F047E050E091
:100D8000BE016F5F7F4FC7010E944C05E981EF777D
:100D9000FA81FB805D814E814F778F81282F30E073
:100DA00094E0359527959A95E1F7922F990F990F31
:100DB000291B220F280FD8012C93842F90E024E0C8
:100DC000959587952A95E1F7982F990F990F891B8B
:100DD000880F840F11968C931197652F70E034E083
:100DE000759567953A95E1F7862F880F880F681BF0
:100DF000660F650F12966C9312974F2D50E064E0CA
:100E0000559547956A95E1F7842F880F880F481B01
:100E1000440F4F0D13964C9313972F2F30E074E02F
:100E2000359527957A95E1F7822F880F880F281B33
:100E3000220F2F0F14962C9314978E2F90E0F4E02E
:100E400095958795FA95E1F7982F990F990F891B3A
:100E5000880F8E0F15968C93C80127960FB6F894BD
:100E6000DEBF0FBECDBFDF91CF911F910F91FF90DD
:100E7000EF900895CF93DF9300D000D000D0CDB78E
:100E8000DEB7CE0101960E94A1064C8120E13EE032
:100E9000429FC001439F900D11242D813CE3239F6D
:100EA000800D911D11242E81820F911D26960FB663
:100EB000F894DEBF0FBECDBFDF91CF910895CF93E1
:100EC000DF9300D0CDB7DEB78FE08A8321E041E029
:100ED00050E0BE016E5F7F4F8091A5029091A60207
:100EE0000E94710641E050E0BE016F5F7F4F80912C
:100EF000A5029091A6020E944C0589810F900F9047
:100F0000DF91CF910895CF93DF93EC0160E08E8164
:100F10000E94040261E08E810E94040260E08E81E2
:100F20000E9404028BE891E00197F1F7DF91CF91E5
:100F30000895CF92DF92EF92FF920F931F93CF937A
:100F4000DF936C017C0187E0E80EF11CD0E0C0E08B
:100F5000062F10E0B8010C2E02C0759567950A9413
:100F6000E2F76170F70181917F010E9404022196EE
:100F7000C430D10579F7C601DF91CF911F910F9150
:100F8000FF90EF90DF90CF900C948307CF92DF9289
:100F9000EF92FF920F931F93CF93DF93EC01F62E06
:100FA000642F8C810E9404028D818F3F19F060E0D4
:100FB0000E9404020F2D10E08F8584FF25C06E0172
:100FC00087E0C80ED11CF12CE12CB8010E2C02C018
:100FD000759567950A94E2F76170F60181916F014A
:100FE0000E940402FFEFEF1AFF0A88E0E816F104FE
:100FF00061F7CE01DF91CF911F910F91FF90EF909C
:10100000DF90CF900C948307B80184E075956795C5
:101010008A95E1F7CE010E9499076F2DCE01DF91ED
:10102000CF911F910F91FF90EF90DF90CF900C9494
:10103000990740E0682F82EC93E00C94C607CF93A9
:10104000DF93823029F49091D10398609093D1037B
:101050008093D5031092D60380E48093D70380E178
:101060008093D80380E58093D90361E08091C60323
:101070000E9432028091C7038F3F19F061E00E9405
:10108000320261E08091C8030E943202C2ECD3E0D8
:101090009E01225C33408091D10384FD0BC084E02B
:1010A00090E021962817390744F461E08E810E9470
:1010B0003202EECF88E090E0F4CF8BE39DE0019721
:1010C000F1F760E08091C6030E94040260E0809125
:1010D000C8030E9404028091C7038F3F19F060E0AB
:1010E0000E9404028091D10384FD39C063E082EC48
:1010F00093E00E949907CBE4D6E4CE010197F1F783
:1011000063E082EC93E00E9499072197F1F763E096
:1011100082EC93E00E94990783E592E00197F1F752
:1011200062E082EC93E00E9499078091D103806293
:101130000E94190884E08093D2038CE00E94190871
:1011400081E00E9419088BE39FE10197F1F782E0AB
:101150008093D30386E0DF91CF910C9419088062CD
:101160000E9419088BE496E40197F1F78091D1036E
:1011700080620E94190883E592E00197F1F780915F
:10118000D10380620E941908D0CF9091D5036917CE
:1011900010F06FEF690FE62FF0E0EE53FC4F9489EB
:1011A000890F80680C94190841E00E94C60781E00D
:1011B00090E00895FB0101900020E9F73197AF011D
:1011C000461B570BDC01ED91FC910280F381E02D71
:1011D00009948F929F92AF92BF92EF92FF920F93DA
:1011E0001F93CF93DF93CDB7DEB7A1970FB6F894D7
:1011F000DEBF0FBECDBF7C01FA01CB0119A22230A8
:1012000008F42AE08E010F5D1F4F822E912CB12C25
:10121000A12CBF01A50194010E94751AF901CA0110
:101220006A300CF5605DD8016E938D01232B242B61
:10123000252B79F790E080E0109721F0BD01C701E0
:101240000E94DA08A1960FB6F894DEBF0FBECDBF9C
:10125000DF91CF911F910F91FF90EF90BF90AF90D2
:101260009F908F900895695CDECF482F50E070E02A
:1012700060E02AE082EC93E00C94E908CF92DF92E0
:10128000EF92FF92CF93DF936C01990FEE08FF0866
:10129000F7FE1BC06DE282EC93E00E949E00EC0121
:1012A00044275527BA014C195D096E097F092AE0C8
:1012B00082EC93E00E94E9088C0F9D1FDF91CF9193
:1012C000FF90EF90DF90CF9008952AE0B701A6013C
:1012D00082EC93E0DF91CF91FF90EF90DF90CF9081
:1012E0000C94E908BC0182EC93E00C94DA088F922C
:1012F0009F92AF92BF92CF92DF92EF92FF920F93A5
:101300001F93FC018FB7F894809013029090140201
:10131000A0901502B09016028FBF9401A50160E065
:1013200070E080E090E0A0901702B0901802C090AA
:101330001902D0901A02E0901B02F0901C0200915A
:101340001D0210911E020E949D1A273C3105410585
:1013500051056105710581059105C1F1BCF18FB79A
:10136000F89400911302109114022091150230910B
:1013700016028FBF009317021093180220931902D0
:1013800030931A0210921B0210921C0210921D023E
:1013900010921E0281E090E09093C5018093C401F9
:1013A000E830F1053CF560E088E08E0F0E94C5084A
:1013B0008DE891E01F910F91FF90EF90DF90CF901B
:1013C000BF90AF909F908F900C947209E830F10518
:1013D0008CF48091C4019091C501019721F31F9174
:1013E0000F91FF90EF90DF90CF90BF90AF909F90C4
:1013F0008F9008958091C4019091C501019779F76C
:1014000061E08E2FD3CF4F925F926F927F928F9237
:101410009F92AF92BF92CF92DF92EF92FF9281E4C0
:1014200080937C0080917A00806480937A00809120
:101430007A0086FDFCCF8091780060917900762F4C
:10144000682F072E000C880B990B0E94921820E041
:1014500030E048E850E40E94F11820E030EB49E722
:1014600055E40E94AF196B017C01AC019B010E9405
:10147000501A6AE371E081111AC046015701E894DD
:10148000B7F82FEF3FEF4FE75FE7C501B4010E94C8
:10149000501A811125C02FEF3FEF4FE75FE7C501DD
:1014A000B4010E948B181816DCF46EE371E089E138
:1014B00093E00E94DA0866E471E089E193E00E941B
:1014C000DA08C701B601FF90EF90DF90CF90BF9090
:1014D000AF909F908F907F906F905F904F90089506
:1014E0002FEF3FEF4FE75FE4C701B6010E944B1AB1
:1014F00018161CF462E471E0DACF2FEF3FEF4FE7EC
:101500005FECC701B6010E948B1887FDF3CF20E086
:1015100030E0A901C701B6010E948B1887FF5BC0AC
:101520006DE289E193E00E949E00C701B6019058E8
:101530002AE037ED43EA5BE30E94B0192B013C013E
:101540000E941C1A4B015C010E9490189B01AC0187
:10155000C301B2010E94AF192B013C012AE0B50181
:10156000A40189E193E00E94E9086EE289E193E039
:101570000E949E0020E030E040E251E4C301B2014D
:101580000E94F1182B013C010E941C1A4B01B12C46
:10159000A12C2AE0B501A40189E193E00E94E908A9
:1015A000C501B4010E9490189B01AC01C301B201B6
:1015B0000E94AF1920E030E040E251E40E94F118AF
:1015C0000E941C1AAB0170E060E02AE089E193E020
:1015D0000E94E90870CFC701B601AACF85ED8093BC
:1015E000BC008091F1029091F202A091F302B091BF
:1015F000F4020796A11DB11D23E0B695A795979516
:1016000087952A95D1F72091BC0024FD03C0109244
:10161000EF0208954091F1025091F2026091F302BD
:101620007091F402452B462B472B69F30097A105D7
:10163000B10541F025E32A95F1F700000197A109D2
:10164000B109E1CF8091F0020C940A031F920F922E
:101650000FB60F9211242F933F934F935F936F9385
:101660007F938F939F93AF93BF93EF93FF9389E102
:1016700093E00E942301FF91EF91BF91AF919F9161
:101680008F917F916F915F914F913F912F910F902B
:101690000FBE0F901F9018951F920F920FB60F92CA
:1016A00011242F938F939F93EF93FF93E09129033E
:1016B000F0912A038081E0912F03F091300382FDA5
:1016C0001BC09081809132038F5F8F732091330311
:1016D000821741F0E0913203F0E0E75EFC4F958F16
:1016E00080933203FF91EF919F918F912F910F90F3
:1016F0000FBE0F901F9018958081F4CF1F920F920C
:101700000FB60F9211242F933F938F939F93AF9314
:10171000BF938091130290911402A0911502B09191
:10172000160230910A0223E0230F2D3758F5019657
:10173000A11DB11D20930A028093130290931402FD
:10174000A0931502B093160280910B0290910C02A7
:10175000A0910D02B0910E020196A11DB11D8093C2
:101760000B0290930C02A0930D02B0930E02BF9156
:10177000AF919F918F913F912F910F900FBE0F903E
:101780001F90189526E8230F0296A11DB11DD2CFF8
:101790001F920F920FB60F9211242F933F934F93E6
:1017A0005F936F937F938F939F93AF93BF93EF93C9
:1017B000FF938091B900887F803609F44AC0F0F524
:1017C000883209F4A7C018F5803109F49BC0B8F439
:1017D000882309F4F9C0883009F494C0FF91EF918F
:1017E000BF91AF919F918F917F916F915F914F9139
:1017F0003F912F910F900FBE0F901F901895883139
:1018000009F488C0803251F78093ED0214C080340F
:1018100009F49DC040F48033B9F38833F9F680931E
:10182000ED0285ECB0C0803509F485C0883509F437
:1018300096C0883499F60E94EE0AD0CF883909F410
:101840008CC038F5883729F050F4883611F080378D
:1018500029F683E08093EF021092090257C088387E
:1018600009F47BC0803919F0803809F0B7CF809136
:101870000902803208F071C0E091090281E08E0F08
:10188000809309028091BB00F0E0E751FE4F808316
:101890003DC0803B39F0E0F4803A09F479C0883AE1
:1018A00009F09CCF84E08093EF021092E80110923F
:1018B000E701E0911102F091120209958091E70190
:1018C00081110FC081E08093E7011092C70109C028
:1018D000803C09F4A6CF883C09F4A3CF883B09F0EB
:1018E0007DCFE091E80181E08E0F8093E801F0E088
:1018F000E953FE4F80818093BB009091E801809175
:10190000E70129C08091CA028093BB0085EC8093D7
:10191000BC0064CF9091EC028091EB02981758F5CF
:10192000E091EC0281E08E0F8093EC02F0E0E55351
:10193000FD4F8081E9CFE091EC0281E08E0F809332
:10194000EC028091BB00F0E0E553FD4F8083909165
:10195000EC028091EB029817C8F285E8D8CFE091AD
:10196000EC0281E08E0F8093EC028091BB00F0E0EE
:10197000E553FD4F80838091EE0281115CCF81E0C1
:101980008093C90284EA8093BC001092EF0226CFB4
:1019900085EC8093BC001092EF02809109028032A6
:1019A00030F4E0910902F0E0E751FE4F10826091BF
:1019B000090270E0E0910F02F091100289EE91E0CF
:1019C0000995109209020ACF1092ED0234CFFC0162
:1019D000908190539A3008F090E0818180532AE002
:1019E000929F800D11240895E9E1F3E013821282A1
:1019F00088EE93E0A0E0B0E084839583A683B7836C
:101A00002EE031E03183208325EC30E035872487D8
:101A100024EC30E03787268720EC30E0318B208BB8
:101A200021EC30E0338B228B22EC30E0358B248BA1
:101A300026EC30E0378B268B118E128E138E148E8F
:101A4000E6EBF3E01382128284839583A683B78347
:101A500080E291E091838083E2ECF3E013821282D2
:101A600082E391E0918380838CE084838FEF858390
:101A70008BE0868385E0878384E0808783E08187AD
:101A800082E082871386148615861686178681E083
:101A90000C941F08CF93DF93CDB7DEB761970FB6D5
:101AA000F894DEBF0FBECDBF789484B5826084BD4C
:101AB00084B5816084BD85B5826085BD85B5816052
:101AC00085BD80916E00816080936E0010928100D0
:101AD000809181008260809381008091810081608B
:101AE000809381008091800081608093800080914C
:101AF000B10084608093B1008091B00081608093D8
:101B0000B00080917A00846080937A0080917A009E
:101B1000826080937A0080917A00816080937A005D
:101B200080917A00806880937A001092C100E091E1
:101B30002903F0912A0382E08083E0912503F0914C
:101B400026031082E0912703F09128038FEC808315
:101B500010923103E0912D03F0912E0386E08083F3
:101B6000E0912B03F0912C03808180618083E091D0
:101B70002B03F0912C03808188608083E0912B03FC
:101B8000F0912C03808180688083E0912B03F09199
:101B90002C0380818F7D808382E00E941F088091CA
:101BA000A5029091A602009711F00E94421B86E0C8
:101BB00090E00E94A61A7C0188E6F701808386EBFC
:101BC00093E092838183138280E290E09583848303
:101BD000F092A602E092A5021092A8021092A7022B
:101BE0001092F602109218030E94EC028CE990E029
:101BF00090931202809311028DE990E0909310026D
:101C000080930F0281E0F7018383C7010E94A10442
:101C1000811117C069E471E089E193E00E94DA085C
:101C200066E471E089E193E00E94DA0889E193E0DB
:101C30000E9492016AE070E080E090E00E949302CE
:101C4000F9CF0E945F0790E0880F892F881F990BBA
:101C5000892B09F4FFC06BE571E089E193E00E94F4
:101C6000DA0866E471E089E193E00E94DA084BE06B
:101C700050E066ED70E0CE0101960E948218CE0120
:101C80000A960E94E70C082FE981E154E33118F528
:101C90000E2E000CFF0BE15BF14F0C94971AB40E63
:101CA0006B0E6B0EC80E6B0ECA0E6B0E6B0E6B0EB0
:101CB000620E6B0E6B0EBB0EC60EC40E6B0E6B0E61
:101CC0006B0EC20E8A8111E0813629F08B8116E0FD
:101CD0008E3609F017E0CE0105960E94E70CF82E2B
:101CE00048E050E06DEC70E0CE0101960E94821851
:101CF000CE0101960E94E70CE82ECE0104960E94C8
:101D0000E70CD82ECE0107960E94E70C382F1A82D6
:101D100019822AE0622F0E94551A982F880F890F86
:101D2000880F830F8A838D2D0E94551A982F880F54
:101D3000890F880F8D0D8B838E2D0E94551A982F39
:101D4000880F890F880F8E0D8C83202F30E04F2D48
:101D500050E0E2ECF0E081E08117F0F49491490F5B
:101D6000511D8F5F3196F8CF8B8114E0823709F4D3
:101D7000B2CF18E0B0CF8B8113E0823709F4ABCF3C
:101D800015E0A9CF19E0A7CF1AE0A5CF1BE0A3CF9C
:101D90001CE0A1CF12E09FCF133028F0802F83707A
:101DA00011F44F5F5F4F6DE671E0269FC001279FE2
:101DB000900D369F900D112405962D5F3F4F36955F
:101DC000279536952795820F931F840F951F67E0FF
:101DD00070E00E94611A811101C087E08D832AE0C2
:101DE0008F2D622F0E94551A982F880F890F880F08
:101DF0008F0D8E83812F0E94551A982F990F890F6E
:101E0000880F180F1F83802F0E94551A982F880F54
:101E1000890F880F800F888721E048E050E0BE01DD
:101E20006F5F7F4F8091A5029091A6020E9471067C
:101E30000E945F079FE09C878F778D8721E042E0BB
:101E400050E0BE01645F7F4F8091A5029091A60291
:101E50000E94710662E086E00E94320262E087E042
:101E60000E94320262E088E00E94320262E089E071
:101E70000E94320261E08AE00E94320260E08FE05C
:101E80000E94320261E08DE00E94320260E08DE04B
:101E90000E9404028FB7F89400911302109114026B
:101EA00020911502309116028FBF009317021093F4
:101EB00018022093190230931A0210921B021092FA
:101EC0001C0210921D0210921E028FB7F8944091CE
:101ED00013025091140260911502709116028FBF87
:101EE00066246A94762CCC24C394D12C09E010E0AB
:101EF00086E0E82EF12C92E0A92EB12CB0E04B2E1A
:101F0000B0E05B2ECE010C960E94A10686E00E94F6
:101F1000DB01892BC1F486E00E94DB01892BD9F318
:101F200080910201909103010196909303018093A7
:101F300002017092010160920001069724F0D09294
:101F40000301C0920201809102019091030183304C
:101F5000910509F4CDC30CF0AFC08130910509F4AF
:101F60009DC1029709F406C285E892E00E9415051A
:101F70004C010E943A078815990554F080910001A0
:101F800090910101019621F4D0928402C0928302C3
:101F900085E892E00E94DE044C010E943A07881610
:101FA00099063CF08091830290918402019709F494
:101FB000E0C760E08AE00E9404021092840210925E
:101FC000830283E692E00E9415054C010E943A07C5
:101FD0008815990554F080910001909101010196B6
:101FE00021F4D0926202C092610283E692E00E94E4
:101FF000DE044C010E943A07881699063CF0809155
:10200000610290916202019709F4C3C760E08AE01F
:102010000E940402109262021092610281E492E036
:102020000E9415054C010E943A07881599053CF05D
:102030008091000190910101019609F4BAC760E016
:102040008AE00E94040281E292E00E9415054C01A0
:102050000E943A078815990554F0809100019091EB
:102060000101019621F4D0922002C0921F0281E268
:1020700092E00E94DE044C010E943A0788169906FD
:102080003CF080911F0290912002019709F49EC7B5
:1020900060E08AE00E9404021092200210921F0267
:1020A0004114510409F42ECF0E940F01882309F432
:1020B00025CF0E94000022CF8430910509F4CFC4BF
:1020C000059709F051CF60E080E00E94C5088AEBD7
:1020D00091E00E94720980912102909122020E9457
:1020E0003E0980912302909124020E943E096AE3F6
:1020F00082EC93E00E949E0080912702909128023A
:102100000E943E098091290290912A020E943E0974
:102110006AE382EC93E00E949E0080912D029091F0
:102120002E020E943E0980912F02909130020E945F
:102130003E098AE891E00E94720961E080E00E9415
:10214000C5088FE991E00E94720980913102909157
:1021500032020E943E0980913302909134020E9423
:102160003E096AE382EC93E00E949E008091370270
:10217000909138020E943E098091390290913A0272
:102180000E943E096AE382EC93E00E949E008091E7
:102190003D0290913E020E943E0980913F02909143
:1021A00040020E943E098AE891E00E94720987E09D
:1021B0000E94DB01892B11F587E00E94DB01892B4E
:1021C000D9F380910001909101019C01277F21307A
:1021D000310509F4FBC52430310509F4F7C5019632
:1021E0009093010180930001809100019091010181
:1021F000409724F0709201016092000180910001EB
:10220000909101010E94770988E00E94DB01892BEF
:1022100009F081C668EC70E080E090E00E949302D3
:1022200089E00E94DB01892BD9F380910001909114
:102230000101FC01EE0FFF1FEF5DFD4F2081318199
:102240002F5F3F4F31832083009709F0C1C52230B3
:10225000310524F0D0922202C092210287309105EC
:1022600009F0E4C520912D0230912E02263031056F
:1022700009F023C61092300210922F028E30910581
:1022800009F0E2C580913D0290913E0207970CF45F
:1022900042C6F0923E02E0923D023DC6CE0101965A
:1022A0000E94A10660E080E00E94C5088FE791E0EF
:1022B0000E9472098C818A3020F486E891E00E94A5
:1022C00072098C810E94350988E891E00E947209A8
:1022D0008D818A3020F486E891E00E9472098D8118
:1022E0000E94350988E891E00E9472098E818A3047
:1022F00020F486E891E00E9472098E810E943509DF
:102300008AE891E00E94720962E080E00E94C508BC
:102310008FE891E00E9472098B818A3020F486E870
:1023200091E00E9472098B810E9435096FE282EC74
:1023300093E00E949E008A818A3020F486E891E032
:102340000E9472098A810E9435096FE282EC93E053
:102350000E949E00498150E04053584F70E060E079
:102360002AE082EC93E00E94E9088BE891E00E9469
:102370007209FACD60E080E00E94C50886E991E02C
:102380000E94720980918502909186020E943E0906
:1023900080918702909188020E943E096AE382EC54
:1023A00093E00E949E0080918B0290918C020E948B
:1023B0003E0980918D0290918E020E943E096AE34F
:1023C00082EC93E00E949E00809191029091920293
:1023D0000E943E0980919302909194020E943E09CE
:1023E0008AE891E00E94720961E080E00E94C508DD
:1023F0008FE991E00E947209809195029091960276
:102400000E943E0980919702909198020E943E0995
:102410006AE382EC93E00E949E0080919B0290917F
:102420009C020E943E0980919D0290919E020E9412
:102430003E096AE382EC93E00E949E008091A10233
:102440009091A2020E943E098091A3029091A40261
:102450000E943E098AE891E00E94720987E00E948A
:10246000DB01892B11F587E00E94DB01892BD9F371
:1024700080910001909101019C01277F213031055D
:1024800009F462C02430310509F45EC001969093CE
:10249000010180930001809100019091010140971A
:1024A00024F07092010160920001809100019091EE
:1024B00001010E94770988E00E94DB01892B09F065
:1024C000E6C068EC70E080E090E00E94930289E052
:1024D0000E94DB01892BD9F38091000190910101C9
:1024E000FC01EE0FFF1FEB57FD4F208131812F5F65
:1024F0003F4F31832083009749F52330310524F085
:10250000B0928602A09285028730910509F04AC0F8
:1025100020919102309192022630310509F089C054
:1025200010929402109293028E30910509F048C0E7
:102530008091A1029091A20207970CF4A8C0F0929A
:10254000A202E092A102A3C00296A1CF8130910520
:10255000D1F42091870230918802409185025091F8
:102560008602452B41F42A30310574F2109388021B
:1025700000938702C9CF2330310534F2B09288022C
:10258000A0928702C1CF8330910509F02FC5209119
:102590008B0230918C022730310524F0F0928C02AE
:1025A000E0928B028830910529F5209195023091B7
:1025B00096022230310524F0D0929602C092950204
:1025C0000F9709F064C08091A1029091A202069732
:1025D00009F083C01092A4021092A30258C0209167
:1025E0008B0230918C0226303105B9F410928E02A4
:1025F00010928D028930910549F18B30910509F0D7
:1026000008C580919B0290919C0207970CF43FC0F3
:10261000F0929C02E0929B023AC020918D02309190
:102620008E022A30310534F310938E0200938D020E
:10263000E1CF20919302309194022A3031050CF4BD
:1026400073CF10939402009393026ECF2091970260
:10265000309198022A30310554F020919502309142
:102660009602232B21F490939802809397028091F5
:10267000970290919802039754F08091950290915F
:102680009602019721F4B0929802A092970289E0F5
:102690000E94DB01892B09F067CC89E00E94DB01F5
:1026A000892BD9F3E0910001F0910101EE0FFF1F9A
:1026B000EB57FD4F80819181019797FD56C491831F
:1026C000808352CC80919D0290919E020A97FCF2E9
:1026D00010939E0200939D02DACF8091A302909105
:1026E000A4020A97A4F21093A4020093A302CFCFEE
:1026F00060E080E00E94C50888EA91E00E947209CB
:1027000080916302909164020E943E09809165026B
:10271000909166020E943E096AE382EC93E00E9477
:102720009E008091690290916A020E943E09809108
:102730006B0290916C020E943E096AE382EC93E086
:102740000E949E0080916F02909170020E943E094B
:1027500080917102909172020E943E098AE891E094
:102760000E94720961E080E00E94C5088FE991E053
:102770000E94720980917302909174020E943E0936
:1027800080917502909176020E943E096AE382EC84
:1027900093E00E949E008091790290917A020E94BB
:1027A0003E0980917B0290917C020E943E096AE37F
:1027B00082EC93E00E949E0080917F0290918002C3
:1027C0000E943E0980918102909182020E943E09FE
:1027D0008AE891E00E94720987E00E94DB01892B60
:1027E00011F587E00E94DB01892BD9F3809100016C
:1027F000909101019C01277F2130310509F462C0CD
:102800002430310509F45EC0019690930101809354
:1028100000018091000190910101409724F0709295
:1028200001016092000180910001909101010E94DC
:10283000770988E00E94DB01892B09F0E6C068EC8B
:1028400070E080E090E00E94930289E00E94DB014A
:10285000892BD9F38091000190910101FC01EE0FC9
:10286000FF1FED59FD4F208131812F5F3F4F318395
:102870002083009749F52230310524F0D09264027C
:10288000C09263028730910509F04AC020916F021F
:10289000309170022630310509F089C01092720221
:1028A000109271028E30910509F048C080917F022C
:1028B0009091800207970CF4A8C0F0928002E092F9
:1028C0007F02A3C00296A1CF81309105D1F420915F
:1028D0006502309166024091630250916402452B7B
:1028E00041F42A30310574F21093660200936502B8
:1028F000C9CF2330310534F2B0926602A09265024E
:10290000C1CF8330910509F094C3209169023091C1
:102910006A022730310524F0F0926A02E0926902DF
:102920008830910529F5209173023091740222308C
:10293000310524F0D0927402C09273020F9709F00F
:1029400064C080917F0290918002069709F07CC05C
:10295000109282021092810258C020916902309137
:102960006A0226303105B9F410926C0210926B02A3
:102970008930910549F18B30910509F06DC3809143
:10298000790290917A0207970CF43FC0F0927A0294
:10299000E09279023AC020916B0230916C022A30A9
:1029A000310534F310936C0200936B02E1CF209158
:1029B0007102309172022A3031050CF473CF1093FA
:1029C0007202009371026ECF2091750230917602EF
:1029D0002A30310554F02091950230919602232B34
:1029E00021F4909376028093750280917502909104
:1029F0007602039754F08091950290919602019788
:102A000021F4B0927602A092750289E00E94DB0167
:102A1000892B09F0A9CA89E00E94DB01892BD9F32F
:102A2000E0910001F0910101EE0FFF1FED59FD4F04
:102A300041CE80917B0290917C020A9734F31093EF
:102A40007C0200937B02E1CF80918102909182020F
:102A50000A97DCF21093820200938102D6CF60E0E5
:102A600080E00E94C50881EB91E00E94720980918C
:102A70004102909142020E943E098091430290914E
:102A800044020E943E096AE382EC93E00E949E00A9
:102A900080914702909148020E943E09809149022C
:102AA00090914A020E943E096AE382EC93E00E9400
:102AB0009E0080914D0290914E020E943E098091AD
:102AC0004F02909150020E943E098AE891E00E94D4
:102AD000720961E080E00E94C5088FE991E00E94E0
:102AE000720980915102909152020E943E09809198
:102AF0005302909154020E943E096AE382EC93E0F3
:102B00000E949E0080915702909158020E943E09B7
:102B10008091590290915A020E943E096AE382EC28
:102B200093E00E949E0080915D0290915E020E945F
:102B30003E0980915F02909160020E943E098AE8FE
:102B400091E00E94720987E00E94DB01892B11F558
:102B500087E00E94DB01892BD9F3809100019091DD
:102B600001019C01277F2130310509F462C0243026
:102B7000310509F45EC00196909301018093000134
:102B80008091000190910101409724F07092010121
:102B90006092000180910001909101010E947709EB
:102BA00088E00E94DB01892B09F0E6C068EC70E048
:102BB00080E090E00E94930289E00E94DB01892B73
:102BC000D9F38091000190910101FC01EE0FFF1FEC
:102BD000EF5BFD4F208131812F5F3F4F3183208399
:102BE000009749F52230310524F0D0924202C0927C
:102BF00041028730910509F04AC020914D02309181
:102C00004E022630310509F089C010925002109210
:102C10004F028E30910509F048C080915D0290917D
:102C20005E0207970CF4A8C0F0925E02E0925D028B
:102C3000A3C00296A1CF81309105D1F42091430227
:102C4000309144024091410250914202452B41F49F
:102C50002A30310574F21093440200934302C9CF25
:102C60002330310534F2B0924402A0924302C1CF26
:102C70008330910509F000C220914702309148024B
:102C80002730310524F0F0924802E0924702883064
:102C9000910529F5209151023091520222303105DF
:102CA00024F0D0925202C09251020F9709F064C0F2
:102CB00080915D0290915E02069709F07CC01092AF
:102CC000600210925F0258C0209147023091480282
:102CD00026303105B9F410924A0210924902893027
:102CE000910549F18B30910509F0D9C180915702C6
:102CF0009091580207970CF43FC0F0925802E0926E
:102D000057023AC02091490230914A022A303105D7
:102D100034F310934A0200934902E1CF20914F020D
:102D2000309150022A3031050CF473CF10935002C9
:102D300000934F026ECF20915302309154022A30FB
:102D4000310554F02091950230919602232B21F405
:102D500090935402809353028091530290915402B5
:102D6000039754F08091950290919602019721F477
:102D7000B0925402A092530289E00E94DB01892B99
:102D800009F0F2C889E00E94DB01892BD9F3E091B8
:102D90000001F0910101EE0FFF1FEF5BFD4F8ACCA8
:102DA0008091590290915A020A9734F310935A0273
:102DB00000935902E1CF80915F02909160020A97DF
:102DC000DCF21093600200935F02D6CF029608CA2D
:102DD00081309105E1F42091230230912402409149
:102DE000210250912202452B49F42A3031050CF47E
:102DF00035CA109324020093230230CA23303105D0
:102E00000CF42CCAB0922402A092230227CA833069
:102E1000910509F054C120912702309128022730F2
:102E2000310524F0F0922802E092270288309105C3
:102E300029F520913102309132022230310524F0FF
:102E4000D0923202C09231020F9709F064C0809193
:102E50003D0290913E02069709F07CC0109240021C
:102E600010923F0258C0209127023091280226304C
:102E70003105B9F410922A02109229028930910585
:102E800049F18B30910509F02DC180913702909165
:102E9000380207970CF43FC0F0923802E0923702F4
:102EA0003AC02091290230912A022A30310534F3A8
:102EB00010932A0200932902E1CF20912F02309132
:102EC00030022A3031050CF4D9C910933002009336
:102ED0002F02D4C920913302309134022A303105B7
:102EE00054F02091950230919602232B21F4909377
:102EF000340280933302809133029091340203971D
:102F000054F08091950290919602019721F4B0922D
:102F10003402A092330289E00E94DB01892B09F080
:102F200023C889E00E94DB01892BD9F3E0910001DD
:102F3000F0910101EE0FFF1FEF5DFD4FBBCB8091C4
:102F4000390290913A020A9734F310933A020093AF
:102F50003902E1CF80913F02909140020A97DCF262
:102F60001093400200933F02D6CF118210820C943E
:102F7000B40F0E94030A20E030E040EF51E40E94C9
:102F80004B1A18160CF01DC861E08AE00E9404027A
:102F900018C80E94030A20E030E040EF51E40E948C
:102FA0004B1A18160CF03AC861E08AE00E9404023D
:102FB00035C80E94030A20E030E040EF51E40E944F
:102FC0004B1A18160CF03FC861E03AC80E94030A79
:102FD00020E030E040EF51E40E944B1A18160CF04C
:102FE0005FC861E08AE00E9404025AC884309105FB
:102FF00009F4F5CA8630910509F086CA209191023C
:10300000309192022730310524F090939202809300
:1030100091028C30910509F087CA80919B029091B2
:103020009C02069709F04ECB10929E0210929D02D0
:103030002ECB8430910509F490CC8630910509F0AF
:1030400021CC20916F02309170022730310524F09D
:103050009093700280936F028C30910509F022CC1E
:103060008091790290917A02069709F0E2CC109251
:103070007C0210927B02C9CC8430910509F424CEE5
:103080008630910509F0B5CD20914D0230914E0268
:103090002730310524F090934E0280934D028C30FE
:1030A000910509F0B6CD809157029091580206978C
:1030B00009F076CE10925A02109259025DCE8430F9
:1030C000910509F4D0CE8630910509F0C7C820914A
:1030D0002D0230912E022730310524F090932E02DC
:1030E00080932D028C30910509F0C8C88091370279
:1030F00090913802069709F022CF10923A0210926E
:10310000390209CFFB01DC0102C005900D9241504C
:103110005040D8F708950E94CD1808F481E0089532
:10312000E89409C097FB3EF4909580957095619561
:103130007F4F8F4F9F4F9923A9F0F92F96E9BB2717
:103140009395F695879577956795B795F111F8CF93
:10315000FAF4BB0F11F460FF1BC06F5F7F4F8F4FFE
:103160009F4F16C0882311F096E911C0772321F0F4
:103170009EE8872F762F05C0662371F096E8862F8C
:1031800070E060E02AF09A95660F771F881FDAF7E3
:10319000880F9695879597F90895990F0008550F10
:1031A000AA0BE0E8FEEF16161706E807F907C0F0CD
:1031B00012161306E407F50798F0621B730B840BD5
:1031C000950B39F40A2661F0232B242B252B21F4AF
:1031D00008950A2609F4A140A6958FEF811D811D4F
:1031E00008950E9404190C9475190E94671938F00B
:1031F0000E946E1920F0952311F00C945E190C9426
:10320000641911240C94A9190E94861970F3959FD2
:10321000C1F3950F50E0551F629FF001729FBB27CD
:10322000F00DB11D639FAA27F00DB11DAA1F649F69
:103230006627B00DA11D661F829F2227B00DA11D1C
:10324000621F739FB00DA11D621F839FA00D611DA2
:10325000221F749F3327A00D611D231F849F600DC3
:10326000211D822F762F6A2F11249F5750409AF0EC
:10327000F1F088234AF0EE0FFF1FBB1F661F771F78
:10328000881F91505040A9F79E3F510580F00C9443
:103290005E190C94A9195F3FE4F3983ED4F3869528
:1032A00077956795B795F795E7959F5FC1F7FE2BE3
:1032B000880F911D9695879597F9089597F99F67BF
:1032C00080E870E060E008959FEF80EC08950024AE
:1032D0000A941616170618060906089500240A947B
:1032E00012161306140605060895092E0394000C01
:1032F00011F4882352F0BB0F40F4BF2B11F460FF90
:1033000004C06F5F7F4F8F4F9F4F089557FD9058B8
:10331000440F551F59F05F3F71F04795880F97FB99
:10332000991F61F09F3F79F0879508951216130653
:103330001406551FF2CF4695F1DF08C01616170682
:103340001806991FF1CF86957105610508940895B7
:10335000E894BB2766277727CB0197F90895505843
:10336000BB27AA270E94C7190C9475190E946719D8
:1033700038F00E946E1920F039F49F3F19F426F4BA
:103380000C9464190EF4E095E7FB0C945E19E92F98
:103390000E94861958F3BA176207730784079507C6
:1033A00020F079F4A6F50C94A8190EF4E0950B2EF4
:1033B000BA2FA02D0B01B90190010C01CA01A00187
:1033C0001124FF27591B99F0593F50F4503E68F1E2
:1033D0001A16F040A22F232F342F4427585FF3CF23
:1033E000469537952795A795F0405395C9F77EF4F4
:1033F0001F16BA0B620B730B840BBAF09150A1F03D
:10340000FF0FBB1F661F771F881FC2F70EC0BA0FC2
:10341000621F731F841F48F4879577956795B7954A
:10342000F7959E3F08F0B0CF9395880F08F0992745
:10343000EE0F9795879508950E948E1988F09F57F3
:1034400098F0B92F9927B751B0F0E1F0660F771FC8
:10345000881F991F1AF0BA95C9F714C0B13091F0BE
:103460000E94A819B1E008950C94A819672F782F2D
:103470008827B85F39F0B93FCCF386957795679583
:10348000B395D9F73EF490958095709561957F4FEF
:103490008F4F9F4F08950E94CD1808F48FEF089525
:1034A0000E94CD18880B990B0895991B79E004C0F0
:1034B000991F961708F0961B881F7A95C9F7809573
:1034C0000895AA1BBB1B51E107C0AA1FBB1FA6176B
:1034D000B70710F0A61BB70B881F991F5A95A9F7BD
:1034E00080959095BC01CD010895A1E21A2EAA1BEA
:1034F000BB1BFD010DC0AA1FBB1FEE1FFF1FA217A4
:10350000B307E407F50720F0A21BB30BE40BF50BA0
:10351000661F771F881F991F1A9469F76095709529
:10352000809590959B01AC01BD01CF010895EE0FF0
:10353000FF1F0590F491E02D09942A193B094C09CD
:103540005D096E097F09800B910B08950F931F93FE
:10355000CF93DF938230910510F482E090E0E09108
:10356000DC03F091DD0330E020E0B0E0A0E0309734
:1035700099F42115310509F44AC0281B390B243070
:103580003105D8F58A819B816115710589F1FB01AF
:1035900093838283FE0111C0408151810281138196
:1035A00048175907E0F04817590799F4109761F048
:1035B00012960C93129713961C933296CF01DF91BB
:1035C000CF911F910F9108950093DC031093DD03B9
:1035D000F4CF2115310551F04217530738F0A901F6
:1035E000DB019A01BD01DF01F801C1CFEF01F9CF85
:1035F0009093DD038093DC03CDCFFE01E20FF31F38
:10360000819391932250310939832883D7CF209118
:10361000DA033091DB03232B41F420910601309132
:1036200007013093DB032093DA03209104013091EA
:1036300005012115310541F42DB73EB74091080130
:1036400050910901241B350BE091DA03F091DB0363
:10365000E217F307A0F42E1B3F0B2817390778F069
:10366000AC014E5F5F4F2417350748F04E0F5F1FC8
:103670005093DB034093DA03819391939FCFF0E063
:10368000E0E09CCFCF93DF930097E9F0FC01329705
:1036900013821282A091DC03B091DD03ED0130E0D2
:1036A00020E01097A1F420813181820F931F209197
:1036B000DA033091DB032817390709F061C0F09372
:1036C000DB03E093DA03DF91CF910895EA01CE178F
:1036D000DF07E8F54A815B819E0141155105B1F78D
:1036E000E901FB83EA8349915991C40FD51FEC1777
:1036F000FD0761F4808191810296840F951FE90195
:1037000099838883828193819B838A83F0E0E0E0C0
:1037100012968D919C9113970097B9F52D913C913C
:103720001197CD010296820F931F2091DA033091F9
:10373000DB032817390739F6309751F51092DD036E
:103740001092DC03B093DB03A093DA03BCCFD383E6
:10375000C28340815181840F951FC817D90761F436
:103760004E5F5F4F88819981480F591F5183408375
:103770008A819B81938382832115310509F0B0CF23
:10378000F093DD03E093DC039ECFFD01DC01C0CFAD
:0A37900013821282D7CFF894FFCF06
:10379A00FFFF01000000DE03800000000000450179
:1037AA00A500D20092010301E100F500000000002B
:1037BA0072044504DB041B043E042B041C040000B1
:1037CA000000D408A500DB04DA046E616E00696E9D
:1037DA0066006F7666000D0A00436F756C646E278B
:1037EA00742066696E642052544300525443206C1C
:1037FA006F737420706F7765722C206C65742773F1
:10380A0020736574207468652074696D652100549D
:10381A00494D453A200030003A002020202000443B
:10382A004154453A20007374617274313A2000663B
:10383A00696E7368203A20007374617274323A2098
:10384A00007374617274333A200073746172743451
:04385A003A20000010
:00000001FF
