:020000040000FA
:100000000C9472000C949A000C949A000C949A0030
:100010000C949A000C949A000C949A000C949A00F8
:100020000C949A000C949A000C949A000C949A00E8
:100030000C949A000C949A000C949A000C949A00D8
:100040000C947E0B0C949A000C944C0B0C94260B85
:100050000C949A000C949A000C949A000C949A00B8
:100060000C94C80B0C949A00000000002400270098
:100070002A0000000000250028002B0000000000DE
:1000800023002600290004040404040404040202DA
:100090000202020203030303030301020408102007
:1000A0004080010204081020010204081020000012
:1000B0000008000201000003040700000000000027
:1000C00000001F1C1F1E1F1E1F1F1E1F1E32303A46
:1000D00031353A33360044656320323620323032CF
:1000E0003300F40C11241FBECFEFD8E0DEBFCDBF2C
:1000F00023E0A4ECB1E001C01D92A03EB207E1F7FD
:1001000011E0A0E0B1E0E4EDF7E302C005900D924C
:10011000A43CB107D9F710E0C2E7D0E004C02197B2
:10012000FE010E94B41AC137D107C9F70E944A0DD7
:100130000C94E81B0C94000008950895DC01ED91E7
:10014000FC910190F081E02D0994AF92BF92CF9283
:10015000DF92EF92FF920F931F93CF93DF936C0187
:100160007B018B01040F151FEB015E01AE18BF0868
:10017000C017D10759F06991D601ED91FC9101901A
:10018000F081E02DC6010995892B79F7C501DF9132
:10019000CF911F910F91FF90EF90DF90CF90BF9084
:1001A000AF900895FC01538D448D252F30E0842FAE
:1001B00090E0821B930B541710F0CF96089501978F
:1001C0000895FC01918D828D981761F0A28DAE0F7C
:1001D000BF2FB11D5D968C91928D9F5F9F73928F03
:1001E00090E008958FEF9FEF0895FC01918D828D2F
:1001F000981731F0828DE80FF11D858D90E00895FC
:100200008FEF9FEF0895FC01918D228D892F90E053
:10021000805C9F4F821B91098F73992708958BE112
:1002200093E00E94030121E0892B09F420E0822F52
:10023000089580E090E0892B29F00E940F01811140
:100240000C9400000895FC01A48DA80FB92FB11DD6
:10025000A35ABF4F2C91848D90E001968F739927FC
:10026000848FA689B7892C93A089B1898C918370DA
:1002700080648C93938D848D981306C00288F389D3
:10028000E02D80818F7D80830895EF92FF920F9300
:100290001F93CF93DF93EC0181E0888F9B8D8C8D32
:1002A00098131AC0E889F989808185FF15C09FB726
:1002B000F894EE89FF896083E889F98980818370E9
:1002C000806480839FBF81E090E0DF91CF911F9198
:1002D0000F91FF90EF900895F62E0B8D10E00F5FB9
:1002E0001F4F0F731127E02E8C8D8E110CC00FB68F
:1002F00007FCFACFE889F989808185FFF5CFCE0127
:100300000E942301F1CFEB8DEC0FFD2FF11DE35A7D
:10031000FF4FF0829FB7F8940B8FEA89FB898081A9
:100320008062CFCFCF93DF93EC01888D8823B9F023
:10033000AA89BB89E889F9898C9185FD03C08081F0
:1003400086FD0DC00FB607FCF7CF8C9185FFF2CF6D
:10035000808185FFEDCFCE010E942301E9CFDF919F
:10036000CF910895833081F028F4813099F0823064
:10037000A9F008958730A9F08830C9F08430B1F42D
:10038000809180008F7D03C0809180008F77809363
:100390008000089584B58F7784BD089584B58F7DDE
:1003A000FBCF8091B0008F778093B000089580914B
:1003B000B0008F7DF9CFCF93DF93282F30E0F90184
:1003C000E255FF4F8491F901E656FF4FD491F901B0
:1003D000EA57FF4FC491CC23A1F081110E94B201D2
:1003E000EC2FF0E0EE0FFF1FE458FF4FA591B49102
:1003F000EC91ED2381E090E009F480E0DF91CF9172
:10040000089580E090E0FACF1F93CF93DF93282FD9
:1004100030E0F901E255FF4F8491F901E656FF4FB4
:10042000D491F901EA57FF4FC491CC23A9F0162FBC
:1004300081110E94B201EC2FF0E0EE0FFF1FEE5889
:10044000FF4FA591B4918FB7F894EC91111108C0AA
:10045000D095DE23DC938FBFDF91CF911F9108955C
:10046000DE2BF8CFCF93DF9390E0FC01E656FF4FF1
:1004700024918A579F4FFC0184918823C9F090E012
:10048000880F991FFC01E859FF4FA591B491FC0119
:10049000EE58FF4FC591D49161110DC09FB7F894EC
:1004A0008C91209582238C938881282328839FBF59
:1004B000DF91CF910895623051F49FB7F8943C9149
:1004C000822F809583238C93E8812E2BEFCF8FB7DB
:1004D000F894EC912E2B2C938FBFEACF3FB7F89472
:1004E00080910B0290910C02A0910D02B0910E022E
:1004F00026B5A89B05C02F3F19F00196A11DB11D7F
:100500003FBFBA2FA92F982F8827BC01CD01620FBA
:10051000711D811D911D42E0660F771F881F991F75
:100520004A95D1F708958F929F92AF92BF92CF9242
:10053000DF92EF92FF924B015C010E946E026B0111
:100540007C010E946E026C197D098E099F09683E2C
:10055000734081059105A8F321E0821A9108A10852
:10056000B10888EEC80E83E0D81EE11CF11C81148E
:100570009104A104B10429F7FF90EF90DF90CF9090
:10058000BF90AF909F908F9008952091E701260F24
:100590003327331F21323105ECF42091F102FC01A5
:1005A00090E080E0243069F082E00895A091E701B6
:1005B0002191AC0149535E4FA40FB52FB11D2C936F
:1005C0000196861798F38091E701680F6093E70121
:1005D00080E0089581E008951092F10281E0809317
:1005E000F0021092CB0261E082E10E94040261E01D
:1005F00083E10E940402E9EBF0E080818E7F80833A
:1006000080818D7F808388E48093B80085E4809327
:10061000BC000895CF93DF9391E09093C6018823A7
:10062000B9F0C091B800D091BA008091BC008A7B2B
:100630008093BC0060E082E10E94040260E083E1FC
:100640000E9404020E94EC02D093BA00C093B8004A
:10065000DF91CF9108958F929F92AF92BF92CF92E8
:10066000DF92EF92FF920F931F93CF93DF93D0917E
:100670001A03D13208F0D7C0182FC09119030E9475
:100680006E026B017C018091F10281116BC082E0EE
:100690008093F1021093F0028FEF8093EF0210929B
:1006A000EE02D093ED02A9EFB2E0EDECF2E080E0D3
:1006B000D81391C01092CC028091CC02CC0FC82BE1
:1006C000C093CC028091CB02813009F088C0109297
:1006D000CB020E946E026B017C018091CC02809360
:1006E000BB008091F3029091F402A091F502B091C9
:1006F000F602892B8A2B8B2BA1F00E946E020091AF
:10070000F3021091F4022091F5023091F6026C1977
:100710007D098E099F09061717072807390708F46E
:1007200042C08091BC0083FDD8CF85EC8093BC0093
:100730000E946E026B017C018091F102823009F40B
:1007400050C08091EF028F3F09F46FC08091EF029B
:10075000803209F46CC08091EF02803309F469C0E3
:1007600084E026C08091F3029091F402A091F502FA
:10077000B091F602892B8A2B8B2B09F484CF0E942F
:100780006E028090F3029090F402A090F502B09077
:10079000F6026C197D098E099F0986169706A80630
:1007A000B90608F070CF8091F2020E940A0385E03A
:1007B0001092F80210921A031092F702DF91CF9173
:1007C0001F910F91FF90EF90DF90CF90BF90AF906F
:1007D0009F908F9008959D9191938F5F69CF85EE43
:1007E000A5CF8091F3029091F402A091F502B0910F
:1007F000F602892B8A2B8B2B09F49ECF0E946E0266
:100800000091F3021091F4022091F5023091F6026A
:100810006C197D098E099F090617170728073907E4
:1008200008F08ACFC0CF81E0C3CF80E0C1CF82E0A3
:10083000BFCF83E0BDCF0895E091AA028091A902C5
:10084000E81730F4F0E0E555FD4F808190E0089521
:100850008FEF9FEF08959091AA028091A9022FEF48
:100860003FEF981748F4E92FF0E0E555FD4F208160
:1008700030E09F5F9093AA02C90108958091A90278
:100880009091AA02891B990B0895CF92DF92EF9263
:10089000FF920F931F93CF93DF937C01CB018A01CB
:1008A0002091F702222389F0EB016B01C40ED51EC3
:1008B000CC15DD0569F06991D701ED91FC910190AE
:1008C000F081E02DC7010995F3CF642F0E94C50286
:1008D000C801DF91CF911F910F91FF90EF90DF90B2
:1008E000CF900895CF93DF931F92CDB7DEB7698382
:1008F0002091F7022223F9F020911A03203258F0B8
:1009000021E030E0FC013383228390E080E00F900F
:10091000DF91CF9108958091F802E82FF0E0E75041
:10092000FD4F998190838F5F8093F80280931A0323
:1009300081E090E0ECCF61E0CE0101960E94C5021B
:10094000F7CFCF93DF93EC018B818823A1F08881CF
:1009500091E09093F702809319031092F80210929D
:100960001A0381E00E942B0391E0811190E0892F0E
:10097000DF91CF9108951092AA021092A9021092CD
:10098000F80210921A030E94EC028CE990E0909316
:100990001202809311028DE990E0909310028093EF
:1009A0000F0281E08B83CE010E94A104982F811158
:1009B000CECFDDCF089590E080E00895FC0140891E
:1009C00051899AE0949F9001959F300D112442899E
:1009D0005389240F351F60E17EE0269FA001279FE9
:1009E000500D369F500D112466897789969F90018E
:1009F000979F300D1124608D718D260F371F8CE36A
:100A0000829FB001839F700D1124460F571F648D84
:100A1000758D969F9001979F300D1124868D978D2F
:100A2000820F931F840F951F0895FC01408151810F
:100A30009AE0949F9001959F300D1124428153813B
:100A4000240F351F60E17EE0269FA001279F500DF7
:100A5000369F500D112466817781969F9001979F54
:100A6000300D112460857185260F371F8CE3829F1E
:100A7000B001839F700D1124460F571F6485758543
:100A8000969F9001979F300D112486859785820F40
:100A9000931F840F951F08952F923F924F925F925C
:100AA0006F927F928F929F92AF92BF92CF92DF927E
:100AB000EF92FF920F931F93CF93DF935C011B0183
:100AC0006A01F12CE12CD50114968D919C9186013F
:100AD0000E191F098017910708F48C01F501D081C8
:100AE0000E946E022B013C018091F102811172C0C3
:100AF000C02F013208F0C0E2F1E0F093F10221E0F2
:100B0000C601801B910BE816F90608F420E020933B
:100B1000F0028FEF8093EF021092EE028C0F809321
:100B2000ED02A1E0A093CC028091CC02DD0FD82B86
:100B3000D093CC028091CB02813009F090C010920A
:100B4000CB020E946E022B013C018091CC0280936B
:100B5000BB008091F3029091F402A091F502B09154
:100B6000F602892B8A2B8B2BA1F00E946E0220911A
:100B7000F3023091F4024091F5025091F6026419AB
:100B8000750986099709261737074807590708F492
:100B900042C08091BC0083FDD8CFB5ECB093BC00BF
:100BA0000E946E022B013C018091F102813009F418
:100BB0005AC08091EE028C1710F4C091EE02ADEC99
:100BC000B2E0EBEAF2E080E08C1751F19D91919355
:100BD0008F5FFACF8091F3029091F402A091F50219
:100BE000B091F602892B8A2B8B2B09F47DCF0E94C2
:100BF0006E022091F3023091F4024091F50250917F
:100C0000F6026419750986099709261737074807F8
:100C1000590708F069CF8091F2020E940A03C0E0F0
:100C20001092AA02C093A902C017110609F057C07A
:100C300041018E0C9F1CE401CE018819990980178F
:100C4000910798F5D50111968D919C91DC01ED915C
:100C5000FC910284F385E02D09958993EDCFE5EEB3
:100C6000E093BC009DCF8091F3029091F402A0919B
:100C7000F502B091F602892B8A2B8B2B09F494CFC5
:100C80000E946E022091F3023091F4024091F5022D
:100C90005091F602641975098609970926173707D6
:100CA0004807590708F080CFB6CFE00EF11EEC14CC
:100CB000FD0408F408CF81E0DF91CF911F910F91DF
:100CC000FF90EF90DF90CF90BF90AF909F908F906C
:100CD0007F906F905F904F903F902F90089580E0AD
:100CE000EBCF1F93CF93DF93DC011496ED91FC9132
:100CF000E417F50710F490E01FC0122FEA01FC0181
:100D000081819281208131E03093F7022093190391
:100D10001092F80210921A03DC01ED91FC9102800E
:100D2000F381E02D0995C817D90729F7812F0E9473
:100D30002B0391E08111DFCF892FDF91CF911F919C
:100D40000895EF92FF920F931F93CF93DF9300D0FC
:100D500000D000D01F92CDB7DEB78C011982E09091
:100D6000A702F090A80220E041E050E0BE016F5FD2
:100D70007F4FC7010E947106882341F047E050E091
:100D8000BE016F5F7F4FC7010E944C05E981EF777D
:100D9000FA81FB805D814E814F778F81282F30E073
:100DA00094E0359527959A95E1F7922F990F990F31
:100DB000291B220F280FD8012C93842F90E024E0C8
:100DC000959587952A95E1F7982F990F990F891B8B
:100DD000880F840F11968C931197652F70E034E083
:100DE000759567953A95E1F7862F880F880F681BF0
:100DF000660F650F12966C9312974F2D50E064E0CA
:100E0000559547956A95E1F7842F880F880F481B01
:100E1000440F4F0D13964C9313972F2F30E074E02F
:100E2000359527957A95E1F7822F880F880F281B33
:100E3000220F2F0F14962C9314978E2F90E0F4E02E
:100E400095958795FA95E1F7982F990F990F891B3A
:100E5000880F8E0F15968C93C80127960FB6F894BD
:100E6000DEBF0FBECDBFDF91CF911F910F91FF90DD
:100E7000EF900895CF93DF9300D000D000D0CDB78E
:100E8000DEB7CE0101960E94A1064C8120E13EE032
:100E9000429FC001439F900D11242D813CE3239F6D
:100EA000800D911D11242E81820F911D26960FB663
:100EB000F894DEBF0FBECDBFDF91CF910895CF93E1
:100EC000DF9300D0CDB7DEB78FE08A8321E041E029
:100ED00050E0BE016E5F7F4F8091A7029091A80203
:100EE0000E94710641E050E0BE016F5F7F4F80912C
:100EF000A7029091A8020E944C0589810F900F9043
:100F0000DF91CF910895CF93DF93EC0160E08E8164
:100F10000E94040261E08E810E94040260E08E81E2
:100F20000E9404028BE891E00197F1F7DF91CF91E5
:100F30000895CF92DF92EF92FF920F931F93CF937A
:100F4000DF936C017C0187E0E80EF11CD0E0C0E08B
:100F5000062F10E0B8010C2E02C0759567950A9413
:100F6000E2F76170F70181917F010E9404022196EE
:100F7000C430D10579F7C601DF91CF911F910F9150
:100F8000FF90EF90DF90CF900C948307CF92DF9289
:100F9000EF92FF920F931F93CF93DF93EC01F62E06
:100FA000642F8C810E9404028D818F3F19F060E0D4
:100FB0000E9404020F2D10E08F8584FF25C06E0172
:100FC00087E0C80ED11CF12CE12CB8010E2C02C018
:100FD000759567950A94E2F76170F60181916F014A
:100FE0000E940402FFEFEF1AFF0A88E0E816F104FE
:100FF00061F7CE01DF91CF911F910F91FF90EF909C
:10100000DF90CF900C948307B80184E075956795C5
:101010008A95E1F7CE010E9499076F2DCE01DF91ED
:10102000CF911F910F91FF90EF90DF90CF900C9494
:10103000990740E0682F84EC93E00C94C607CF93A7
:10104000DF93823029F49091D30398609093D30377
:101050008093D7031092D80380E48093D90380E172
:101060008093DA0380E58093DB0361E08091C8031D
:101070000E9432028091C9038F3F19F061E00E9403
:10108000320261E08091CA030E943202C4ECD3E0D4
:101090009E01245C33408091D30384FD0BC084E027
:1010A00090E021962817390744F461E08E810E9470
:1010B0003202EECF88E090E0F4CF8BE39DE0019721
:1010C000F1F760E08091C8030E94040260E0809123
:1010D000CA030E9404028091C9038F3F19F060E0A7
:1010E0000E9404028091D30384FD39C063E084EC44
:1010F00093E00E949907CBE4D6E4CE010197F1F783
:1011000063E084EC93E00E9499072197F1F763E094
:1011100084EC93E00E94990783E592E00197F1F750
:1011200062E084EC93E00E9499078091D30380628F
:101130000E94190884E08093D4038CE00E9419086F
:1011400081E00E9419088BE39FE10197F1F782E0AB
:101150008093D50386E0DF91CF910C9419088062CB
:101160000E9419088BE496E40197F1F78091D3036C
:1011700080620E94190883E592E00197F1F780915F
:10118000D30380620E941908D0CF9091D7036917CA
:1011900010F06FEF690FE62FF0E0EC53FC4F9489ED
:1011A000890F80680C94190841E00E94C60781E00D
:1011B00090E00895FB0101900020E9F73197AF011D
:1011C000461B570BDC01ED91FC910280F381E02D71
:1011D00009948F929F92AF92BF92EF92FF920F93DA
:1011E0001F93CF93DF93CDB7DEB7A1970FB6F894D7
:1011F000DEBF0FBECDBF7C01FA01CB0119A22230A8
:1012000008F42AE08E010F5D1F4F822E912CB12C25
:10121000A12CBF01A50194010E94921AF901CA01F3
:101220006A300CF5605DD8016E938D01232B242B61
:10123000252B79F790E080E0109721F0BD01C701E0
:101240000E94DA08A1960FB6F894DEBF0FBECDBF9C
:10125000DF91CF911F910F91FF90EF90BF90AF90D2
:101260009F908F900895695CDECF482F50E070E02A
:1012700060E02AE084EC93E00C94E908CF92DF92DE
:10128000EF92FF92CF93DF936C01990FEE08FF0866
:10129000F7FE1BC06DE284EC93E00E949E00EC011F
:1012A00044275527BA014C195D096E097F092AE0C8
:1012B00084EC93E00E94E9088C0F9D1FDF91CF9191
:1012C000FF90EF90DF90CF9008952AE0B701A6013C
:1012D00084EC93E0DF91CF91FF90EF90DF90CF907F
:1012E0000C94E908BC0184EC93E00C94DA088F922A
:1012F0009F92AF92BF92CF92DF92EF92FF920F93A5
:101300001F93FC018FB7F894809013029090140201
:10131000A0901502B09016028FBF9401A50160E065
:1013200070E080E090E0A0901702B0901802C090AA
:101330001902D0901A02E0901B02F0901C0200915A
:101340001D0210911E020E94BA1A273C3105410568
:1013500051056105710581059105C1F1BCF18FB79A
:10136000F89400911302109114022091150230910B
:1013700016028FBF009317021093180220931902D0
:1013800030931A0210921B0210921C0210921D023E
:1013900010921E0281E090E09093C5018093C401F9
:1013A000E830F1053CF560E088E08E0F0E94C5084A
:1013B0008DE891E01F910F91FF90EF90DF90CF901B
:1013C000BF90AF909F908F900C947209E830F10518
:1013D0008CF48091C4019091C501019721F31F9174
:1013E0000F91FF90EF90DF90CF90BF90AF909F90C4
:1013F0008F9008958091C4019091C501019779F76C
:1014000061E08E2FD3CF4F925F926F927F928F9237
:101410009F92AF92BF92CF92DF92EF92FF9281E4C0
:1014200080937C0080917A00806480937A00809120
:101430007A0086FDFCCF8091780060917900762F4C
:10144000682F072E000C880B990B0E94AF1820E024
:1014500030E048E850E40E940E1920E030EB49E704
:1014600055E40E94CC196B017C01AC019B010E94E8
:101470006D1A6AE371E081111AC046015701E894C0
:10148000B7F82FEF3FEF4FE75FE7C501B4010E94C8
:101490006D1A811125C02FEF3FEF4FE75FE7C501C0
:1014A000B4010E94A8181816DCF46EE371E08BE119
:1014B00093E00E94DA0866E471E08BE193E00E9419
:1014C000DA08C701B601FF90EF90DF90CF90BF9090
:1014D000AF909F908F907F906F905F904F90089506
:1014E0002FEF3FEF4FE75FE4C701B6010E94681A94
:1014F00018161CF462E471E0DACF2FEF3FEF4FE7EC
:101500005FECC701B6010E94A81887FDF3CF20E069
:1015100030E0A901C701B6010E94A81887FF5BC08F
:101520006DE28BE193E00E949E00C701B6019058E6
:101530002AE037ED43EA5BE30E94CD192B013C0121
:101540000E94391A4B015C010E94AD189B01AC014D
:10155000C301B2010E94CC192B013C012AE0B50164
:10156000A4018BE193E00E94E9086EE28BE193E035
:101570000E949E0020E030E040E251E4C301B2014D
:101580000E940E192B013C010E94391A4B01B12C0B
:10159000A12C2AE0B501A4018BE193E00E94E908A7
:1015A000C501B4010E94AD189B01AC01C301B20199
:1015B0000E94CC1920E030E040E251E40E940E1974
:1015C0000E94391AAB0170E060E02AE08BE193E001
:1015D0000E94E90870CFC701B601AACF85ED8093BC
:1015E000BC008091F3029091F402A091F502B091B9
:1015F000F6020796A11DB11D23E0B695A795979514
:1016000087952A95D1F72091BC0024FD03C0109244
:10161000F10208954091F3025091F4026091F502B5
:101620007091F602452B462B472B69F30097A105D5
:10163000B10541F025E32A95F1F700000197A109D2
:10164000B109E1CF8091F2020C940A031F920F922C
:101650000FB60F9211242F933F934F935F936F9385
:101660007F938F939F93AF93BF93EF93FF938BE100
:1016700093E00E942301FF91EF91BF91AF919F9161
:101680008F917F916F915F914F913F912F910F902B
:101690000FBE0F901F9018951F920F920FB60F92CA
:1016A00011242F938F939F93EF93FF93E0912B033C
:1016B000F0912C038081E0913103F091320382FD9F
:1016C0001BC09081809134038F5F8F73209135030D
:1016D000821741F0E0913403F0E0E55EFC4F958F16
:1016E00080933403FF91EF919F918F912F910F90F1
:1016F0000FBE0F901F9018958081F4CF1F920F920C
:101700000FB60F9211242F933F938F939F93AF9314
:10171000BF938091130290911402A0911502B09191
:10172000160230910A0223E0230F2D3758F5019657
:10173000A11DB11D20930A028093130290931402FD
:10174000A0931502B093160280910B0290910C02A7
:10175000A0910D02B0910E020196A11DB11D8093C2
:101760000B0290930C02A0930D02B0930E02BF9156
:10177000AF919F918F913F912F910F900FBE0F903E
:101780001F90189526E8230F0296A11DB11DD2CFF8
:101790001F920F920FB60F9211242F933F934F93E6
:1017A0005F936F937F938F939F93AF93BF93EF93C9
:1017B000FF938091B900887F803609F44AC0F0F524
:1017C000883209F4A7C018F5803109F49BC0B8F439
:1017D000882309F4F9C0883009F494C0FF91EF918F
:1017E000BF91AF919F918F917F916F915F914F9139
:1017F0003F912F910F900FBE0F901F901895883139
:1018000009F488C0803251F78093EF0214C080340D
:1018100009F49DC040F48033B9F38833F9F680931E
:10182000EF0285ECB0C0803509F485C0883509F435
:1018300096C0883499F60E94EE0AD0CF883909F410
:101840008CC038F5883729F050F4883611F080378D
:1018500029F683E08093F1021092090257C088387C
:1018600009F47BC0803919F0803809F0B7CF809136
:101870000902803208F071C0E091090281E08E0F08
:10188000809309028091BB00F0E0E751FE4F808316
:101890003DC0803B39F0E0F4803A09F479C0883AE1
:1018A00009F09CCF84E08093F1021092E80110923D
:1018B000E701E0911102F091120209958091E70190
:1018C00081110FC081E08093E7011092C70109C028
:1018D000803C09F4A6CF883C09F4A3CF883B09F0EB
:1018E0007DCFE091E80181E08E0F8093E801F0E088
:1018F000E953FE4F80818093BB009091E801809175
:10190000E70129C08091CC028093BB0085EC8093D5
:10191000BC0064CF9091EE028091ED02981758F5CB
:10192000E091EE0281E08E0F8093EE02F0E0E3534F
:10193000FD4F8081E9CFE091EE0281E08E0F809330
:10194000EE028091BB00F0E0E353FD4F8083909165
:10195000EE028091ED029817C8F285E8D8CFE091A9
:10196000EE0281E08E0F8093EE028091BB00F0E0EA
:10197000E353FD4F80838091F00281115CCF81E0C1
:101980008093CB0284EA8093BC001092F10226CFB0
:1019900085EC8093BC001092F102809109028032A4
:1019A00030F4E0910902F0E0E751FE4F10826091BF
:1019B000090270E0E0910F02F091100289EE91E0CF
:1019C0000995109209020ACF1092EF0234CFFC0160
:1019D000908190539A3008F090E0818180532AE002
:1019E000929F800D11240895EBE1F3E0138212829F
:1019F00088EE93E0A0E0B0E084839583A683B7836C
:101A00002EE031E03183208325EC30E035872487D8
:101A100024EC30E03787268720EC30E0318B208BB8
:101A200021EC30E0338B228B22EC30E0358B248BA1
:101A300026EC30E0378B268B118E128E138E148E8F
:101A4000E8EBF3E01382128284839583A683B78345
:101A500080E291E091838083E4ECF3E013821282D0
:101A600082E391E0918380838CE084838FEF858390
:101A70008BE0868385E0878384E0808783E08187AD
:101A800082E082871386148615861686178681E083
:101A90000C941F08CF93DF93CDB7DEB761970FB6D5
:101AA000F894DEBF0FBECDBF789484B5826084BD4C
:101AB00084B5816084BD85B5826085BD85B5816052
:101AC00085BD80916E00816080936E0010928100D0
:101AD000809181008260809381008091810081608B
:101AE000809381008091800081608093800080914C
:101AF000B10084608093B1008091B00081608093D8
:101B0000B00080917A00846080937A0080917A009E
:101B1000826080937A0080917A00816080937A005D
:101B200080917A00806880937A001092C100E091E1
:101B30002B03F0912C0382E08083E0912703F09146
:101B400028031082E0912903F0912A038FEC80830F
:101B500010923303E0912F03F091300386E08083ED
:101B6000E0912D03F0912E03808180618083E091CC
:101B70002D03F0912E03808188608083E0912D03F6
:101B8000F0912E03808180688083E0912D03F09195
:101B90002E0380818F7D808382E00E941F088091C8
:101BA000A7029091A802009711F00E945F1B86E0A7
:101BB00090E00E94C31A7C0188E6F701808388EBDD
:101BC00093E092838183138280E290E09583848303
:101BD000F092A802E092A7021092AA021092A90223
:101BE0001092F80210921A030E94EC028CE990E025
:101BF00090931202809311028DE990E0909310026D
:101C000080930F0281E0F7018383C7010E94A10442
:101C1000811117C069E471E08BE193E00E94DA085A
:101C200066E471E08BE193E00E94DA088BE193E0D7
:101C30000E9492016AE070E080E090E00E949302CE
:101C4000F9CF0E945F0790E0880F892F881F990BBA
:101C5000892B09F400C16BE571E08BE193E00E94F0
:101C6000DA0866E471E08BE193E00E94DA084BE069
:101C700050E066ED70E0CE0101960E949F18CE0103
:101C80000A960E94E70C082FE981E154E33118F528
:101C90000E2E000CFF0BE15BF14F0C94B41AB40E46
:101CA0006B0E6B0EC80E6B0ECA0E6B0E6B0E6B0EB0
:101CB000620E6B0E6B0EBB0EC60EC40E6B0E6B0E61
:101CC0006B0EC20E8A8111E0813629F08B8116E0FD
:101CD0008E3609F017E0CE0105960E94E70CF82E2B
:101CE00048E050E06DEC70E0CE0101960E949F1834
:101CF000CE0101960E94E70CE82ECE0104960E94C8
:101D0000E70CD82ECE0107960E94E70C382F1A82D6
:101D100019822AE0622F0E94721A982F880F890F69
:101D2000880F830F8A838D2D0E94721A982F880F37
:101D3000890F880F8D0D8B838E2D0E94721A982F1C
:101D4000880F890F880F8E0D8C83602F70E02F2DE8
:101D500030E0E2ECF0E081E08117F0F49491290F9B
:101D6000311D8F5F3196F8CF8B8114E0823709F4F3
:101D7000B2CF18E0B0CF8B8113E0823709F4ABCF3C
:101D800015E0A9CF19E0A7CF1AE0A5CF1BE0A3CF9C
:101D90001CE0A1CF12E09FCF133028F0802F83707A
:101DA00011F42F5F3F4FCB0103969695879596953B
:101DB0008795EDE6F1E06E9FA0016F9F500D7E9F2D
:101DC000500D11244B5F5F4F840F951F820F931F9F
:101DD00067E070E00E947E1A811101C087E08D8368
:101DE0002AE08F2D622F0E94721A982F880F890F78
:101DF000880F8F0D8E83812F0E94721A982F990F52
:101E0000890F880F180F1F83802F0E94721A982F36
:101E1000880F890F880F800F888721E048E050E005
:101E2000BE016F5F7F4F8091A7029091A8020E9430
:101E300071060E945F079FE09C878F778D8721E066
:101E400042E050E0BE01645F7F4F8091A702909115
:101E5000A8020E94710662E086E00E94320262E0FF
:101E600087E00E94320262E088E00E94320262E073
:101E700089E00E94320261E08AE00E94320260E062
:101E80008FE00E94320261E08DE00E94320260E049
:101E90008DE00E9404028FB7F89400911302109114
:101EA000140220911502309116028FBF0093170281
:101EB000109318022093190230931A0210921B02F9
:101EC00010921C0210921D0210921E028FB7F894FD
:101ED0004091130250911402609115027091160204
:101EE0008FBF66246A94762CCC24C394D12C09E04D
:101EF00010E086E0E82EF12C92E0A92EB12CB0E0A3
:101F00004B2EB0E05B2ECE010C960E94A10686E01F
:101F10000E94DB01892BC1F486E00E94DB01892B42
:101F2000D9F38091020190910301019690930301EE
:101F3000809302017092010160920001069724F0E3
:101F4000D0920301C092020180910201909103019D
:101F50008330910509F4E5C30CF0C7C081309105C9
:101F600009F4B5C1029709F41EC287E892E00E9405
:101F700015054C010E943A078815990554F0809187
:101F8000000190910101019621F4D0928602C09245
:101F9000850287E892E00E94DE044C010E943A0725
:101FA000881699063CF080918502909186020197EF
:101FB00009F4F8C760E08AE00E94040210928602E9
:101FC0001092850285E692E00E9415054C010E9460
:101FD0003A078815990554F080910001909101010C
:101FE000019621F4D0926402C092630285E692E0E9
:101FF0000E94DE044C010E943A07881699063CF0C4
:102000008091630290916402019709F4DCC760E05B
:102010008AE00E940402109264021092630285E634
:1020200092E00E9415054C010E943A078815990517
:1020300054F08091000190910101019621F4D09219
:102040006202C092610285E692E00E94DE044C01C9
:102050000E943A07881699063CF08091610290919F
:102060006202019709F4BFC760E08AE00E9404029F
:10207000109262021092610281E492E00E941505C2
:102080004C010E943A078815990554F0809100018F
:1020900090910101019621F4D0924002C0923F023A
:1020A00081E492E00E94DE044C010E943A07881607
:1020B00099063CF080913F0290914002019709F40B
:1020C000A2C760E08AE00E940402109240021092CF
:1020D0003F024114510409F416CF0E940F018823D6
:1020E00009F40DCF0E9400000ACF8430910509F455
:1020F000CFC4059709F039CF60E080E00E94C508A1
:102100008AEB91E00E947209809141029091420213
:102110000E943E0980914302909144020E943E0930
:102120006AE384EC93E00E949E00809147029091C4
:1021300048020E943E098091490290914A020E9401
:102140003E096AE384EC93E00E949E0080914D0278
:1021500090914E020E943E0980914F029091500250
:102160000E943E098AE891E00E94720961E080E0E5
:102170000E94C5088FE991E00E9472098091510286
:10218000909152020E943E09809153029091540214
:102190000E943E096AE384EC93E00E949E008091D5
:1021A0005702909158020E943E09809159029091E5
:1021B0005A020E943E096AE384EC93E00E949E006A
:1021C00080915D0290915E020E943E0980915F02C3
:1021D000909160020E943E098AE891E00E94720993
:1021E00087E00E94DB01892B11F587E00E94DB016B
:1021F000892BD9F380910001909101019C01277FE7
:102200002130310509F4FBC52430310509F4F7C547
:1022100001969093010180930001809100019091BB
:102220000101409724F070920101609200018091B9
:102230000001909101010E94770988E00E94DB0172
:10224000892B09F081C668EC70E080E090E00E9484
:10225000930289E00E94DB01892BD9F38091000170
:1022600090910101FC01EE0FFF1FEF5BFD4F2081FC
:1022700031812F5F3F4F31832083009709F0C1C523
:102280002230310524F0D0924202C09241028730C0
:10229000910509F0E4C520914D0230914E0226309F
:1022A000310509F023C61092500210924F028E3071
:1022B000910509F0E2C580915D0290915E02079759
:1022C0000CF442C6F0925E02E0925D023DC6CE0181
:1022D00001960E94A10660E080E00E94C5088FE799
:1022E00091E00E9472098C818A3020F486E891E0A6
:1022F0000E9472098C810E94350988E891E00E9451
:1023000072098D818A3020F486E891E00E9472097A
:102310008D810E94350988E891E00E9472098E81C2
:102320008A3020F486E891E00E9472098E810E9432
:1023300035098AE891E00E94720962E080E00E941B
:10234000C5088FE891E00E9472098B818A3020F4E1
:1023500086E891E00E9472098B810E9435096FE244
:1023600084EC93E00E949E008A818A3020F486E803
:1023700091E00E9472098A810E9435096FE284EC23
:1023800093E00E949E00498150E04053584F70E016
:1023900060E02AE084EC93E00E94E9088BE891E099
:1023A0000E947209E2CD60E080E00E94C50886E9E3
:1023B00091E00E94720980918702909188020E94A8
:1023C0003E098091890290918A020E943E096AE347
:1023D00084EC93E00E949E0080918D0290918E0289
:1023E0000E943E0980918F02909190020E943E09C6
:1023F0006AE384EC93E00E949E00809193029091A6
:1024000094020E943E0980919502909196020E944A
:102410003E098AE891E00E94720961E080E00E9432
:10242000C5088FE991E00E9472098091970290910E
:1024300098020E943E098091990290919A020E940E
:102440003E096AE384EC93E00E949E0080919D0225
:1024500090919E020E943E0980919F029091A0025D
:102460000E943E096AE384EC93E00E949E00809102
:10247000A3029091A4020E943E098091A50290912E
:10248000A6020E943E098AE891E00E94720987E054
:102490000E94DB01892B11F587E00E94DB01892B6B
:1024A000D9F380910001909101019C01277F213097
:1024B000310509F462C02430310509F45EC001968B
:1024C000909301018093000180910001909101019E
:1024D000409724F070920101609200018091000108
:1024E000909101010E94770988E00E94DB01892B0D
:1024F00009F0E6C068EC70E080E090E00E94930292
:1025000089E00E94DB01892BD9F380910001909131
:102510000101FC01EE0FFF1FE957FD4F20813181C2
:102520002F5F3F4F31832083009749F523303105DA
:1025300024F0B0928802A09287028730910509F0BA
:102540004AC020919302309194022630310509F05F
:1025500089C010929602109295028E30910509F072
:1025600048C08091A3029091A40207970CF4A8C0E0
:10257000F092A402E092A302A3C00296A1CF813000
:102580009105D1F42091890230918A02409187020D
:1025900050918802452B41F42A30310574F2109392
:1025A0008A0200938902C9CF2330310534F2B092F8
:1025B0008A02A0928902C1CF8330910509F033C508
:1025C00020918D0230918E022730310524F0F09257
:1025D0008E02E0928D028830910529F520919702B4
:1025E000309198022330310524F0B0929802A092E5
:1025F00097020F9709F064C08091A3029091A40202
:10260000069709F083C01092A6021092A50258C046
:1026100020918D0230918E0226303105B9F410924E
:10262000900210928F028930910549F18B3091050B
:1026300009F00CC580919D0290919E0207970CF4C1
:102640003FC0F0929E02E0929D023AC020918F021C
:10265000309190022A30310534F3109390020093A8
:102660008F02E1CF20919502309196022A303105F8
:102670000CF473CF10939602009395026ECF2091C5
:10268000990230919A022A30310554F02091970234
:1026900030919802232B21F490939A02809399020F
:1026A0008091990290919A02039754F08091970239
:1026B00090919802019721F4B0929A02A092990207
:1026C00089E00E94DB01892B09F04FCC89E00E9450
:1026D000DB01892BD9F3E0910001F0910101EE0FAC
:1026E000FF1FE957FD4F80819181019797FD56C4E7
:1026F000918380833ACC80919F029091A0020A97A7
:10270000FCF21093A00200939F02DACF8091A50201
:102710009091A6020A97A4F21093A6020093A50234
:10272000CFCF60E080E00E94C50888EA91E00E9477
:10273000720980916502909166020E943E09809123
:102740006702909168020E943E096AE384EC93E07C
:102750000E949E0080916B0290916C020E943E0943
:1027600080916D0290916E020E943E096AE384ECB2
:1027700093E00E949E0080917102909172020E94EB
:102780003E0980917302909174020E943E098AE88A
:1027900091E00E94720961E080E00E94C5088FE923
:1027A00091E00E94720980917502909176020E94D8
:1027B0003E0980917702909178020E943E096AE377
:1027C00084EC93E00E949E0080917B0290917C02B9
:1027D0000E943E0980917D0290917E020E943E09F6
:1027E0006AE384EC93E00E949E00809181029091C4
:1027F00082020E943E0980918302909184020E948D
:102800003E098AE891E00E94720987E00E94DB019C
:10281000892B11F587E00E94DB01892BD9F3809188
:102820000001909101019C01277F2130310509F4BD
:1028300062C02430310509F45EC001969093010115
:10284000809300018091000190910101409724F054
:10285000709201016092000180910001909101014C
:102860000E94770988E00E94DB01892B09F0E6C00D
:1028700068EC70E080E090E00E94930289E00E94A2
:10288000DB01892BD9F38091000190910101FC01BA
:10289000EE0FFF1FEB59FD4F208131812F5F3F4F1E
:1028A00031832083009749F52230310524F0D092FE
:1028B0006602C09265028730910509F04AC02091F6
:1028C0007102309172022630310509F089C01092F0
:1028D0007402109273028E30910509F048C0809105
:1028E00081029091820207970CF4A8C0F0928202B4
:1028F000E0928102A3C00296A1CF81309105D1F46C
:102900002091670230916802409165025091660201
:10291000452B41F42A30310574F21093680200937C
:102920006702C9CF2330310534F2B0926802A09219
:102930006702C1CF8330910509F098C320916B02E3
:1029400030916C022730310524F0F0926C02E09255
:102950006B028830910529F520917502309176023D
:102960002230310524F0D0927602C09275020F9782
:1029700009F064C08091810290918202069709F06B
:102980007CC0109284021092830258C020916B0286
:1029900030916C0226303105B9F410926E0210921B
:1029A0006D028930910549F18B30910509F071C3B1
:1029B00080917B0290917C0207970CF43FC0F092CB
:1029C0007C02E0927B023AC020916D0230916E024F
:1029D0002A30310534F310936E0200936D02E1CF7B
:1029E00020917302309174022A3031050CF473CFB8
:1029F00010937402009373026ECF2091770230918E
:102A000078022A30310554F02091970230919802D3
:102A1000232B21F4909378028093770280917702A0
:102A200090917802039754F08091970290919802C8
:102A3000019721F4B0927802A092770289E00E9477
:102A4000DB01892B09F091CA89E00E94DB01892B07
:102A5000D9F3E0910001F0910101EE0FFF1FEB5956
:102A6000FD4F41CE80917D0290917E020A9734F312
:102A700010937E0200937D02E1CF809183029091BA
:102A800084020A97DCF21093840200938302D6CF6B
:102A900060E080E00E94C50881EB91E00E9472092D
:102AA00080911F02909120020E943E098091210294
:102AB000909122020E943E096AE384EC93E00E9416
:102AC0009E0080912502909126020E943E098091ED
:102AD0002702909128020E943E096AE384EC93E069
:102AE0000E949E0080912B0290912C020E943E0930
:102AF00080912D0290912E020E943E098AE891E079
:102B00000E94720961E080E00E94C5088FE991E0AF
:102B10000E94720980912F02909130020E943E091A
:102B200080913102909132020E943E096AE384EC66
:102B300093E00E949E0080913502909136020E949F
:102B40003E0980913702909138020E943E096AE363
:102B500084EC93E00E949E0080913B0290913C02A5
:102B60000E943E0980913D0290913E020E943E09E2
:102B70008AE891E00E94720987E00E94DB01892BBC
:102B800011F587E00E94DB01892BD9F380910001C8
:102B9000909101019C01277F2130310509F462C029
:102BA0002430310509F45EC00196909301018093B1
:102BB00000018091000190910101409724F07092F2
:102BC00001016092000180910001909101010E9439
:102BD000770988E00E94DB01892B09F0E6C068ECE8
:102BE00070E080E090E00E94930289E00E94DB01A7
:102BF000892BD9F38091000190910101FC01EE0F26
:102C0000FF1FE15EFD4F208131812F5F3F4F3183F8
:102C10002083009749F52230310524F0D09220021C
:102C2000C0921F028730910509F04AC020912B0203
:102C300030912C022630310509F089C010922E0205
:102C400010922D028E30910509F048C080913B0210
:102C500090913C0207970CF4A8C0F0923C02E092DD
:102C60003B02A3C00296A1CF81309105D1F42091FF
:102C700021023091220240911F0250912002452BE7
:102C800041F42A30310574F210932202009321029C
:102C9000C9CF2330310534F2B0922202A092210232
:102CA000C1CF8330910509F004C2209125023091F3
:102CB00026022730310524F0F0922602E092250208
:102CC0008830910529F520912F0230913002223071
:102CD000310524F0D0923002C0922F020F9709F0F4
:102CE00064C080913B0290913C02069709F07CC041
:102CF00010923E0210923D0258C020912502309160
:102D0000260226303105B9F41092280210922702CB
:102D10008930910549F18B30910509F0DDC1809131
:102D200035029091360207970CF43FC0F0923602BC
:102D3000E09235023AC020912702309128022A30D1
:102D4000310534F31093280200932702E1CF20913C
:102D50002D0230912E022A3031050CF473CF1093DE
:102D60002E0200932D026ECF20913102309132025B
:102D70002A30310554F02091970230919802232B8C
:102D800021F490933202809331028091310290912C
:102D90003202039754F08091970290919802019724
:102DA00021F4B0923202A092310289E00E94DB014C
:102DB000892B09F0DAC889E00E94DB01892BD9F35D
:102DC000E0910001F0910101EE0FFF1FE15EFD4F68
:102DD0008ACC80913702909138020A9734F310938D
:102DE000380200933702E1CF80913D0290913E027C
:102DF0000A97DCF210933E0200933D02D6CF029672
:102E000008CA81309105E1F42091430230914402D7
:102E10004091410250914202452B49F42A3031053C
:102E20000CF435CA109344020093430230CA233095
:102E300031050CF42CCAB0924402A092430227CA76
:102E40008330910509F058C1209147023091480222
:102E50002730310524F0F0924802E0924702883092
:102E6000910529F52091510230915202223031050D
:102E700024F0D0925202C09251020F9709F064C020
:102E800080915D0290915E02069709F07CC01092DD
:102E9000600210925F0258C02091470230914802B0
:102EA00026303105B9F410924A0210924902893055
:102EB000910549F18B30910509F031C1809157029C
:102EC0009091580207970CF43FC0F0925802E0929C
:102ED00057023AC02091490230914A022A30310506
:102EE00034F310934A0200934902E1CF20914F023C
:102EF000309150022A3031050CF4D9C91093500298
:102F000000934F02D4C920915302309154022A30C9
:102F1000310554F02091970230919802232B21F42F
:102F200090935402809353028091530290915402E3
:102F3000039754F08091970290919802019721F4A1
:102F4000B0925402A092530289E00E94DB01892BC7
:102F500009F00BC889E00E94DB01892BD9F3E091CD
:102F60000001F0910101EE0FFF1FEF5BFD4FBBCBA6
:102F70008091590290915A020A9734F310935A02A1
:102F800000935902E1CF80915F02909160020A970D
:102F9000DCF21093600200935F02D6CF11821082A0
:102FA0000C94B50F0E94030A20E030E040EF51E49A
:102FB0000E94681A18160CF005C861E08AE00E94A9
:102FC00004020C94E20F0E94030A20E030E040EF7C
:102FD00051E40E94681A18160CF021C861E08AE0DA
:102FE0000E9404021CC80E94030A20E030E040EF67
:102FF00051E40E94681A18160CF03EC861E08AE09D
:103000000E94040239C80E94030A20E030E040EF29
:1030100051E40E94681A18160CF05BC861E08AE05F
:103020000E94040256C88430910509F4F1CA863022
:10303000910509F082CA20919302309194022730C1
:10304000310524F090939402809393028C30910583
:1030500009F083CA80919D0290919E02069709F023
:103060004ACB1092A00210929F022ACB8430910585
:1030700009F48CCC8630910509F01DCC20917102A9
:10308000309172022730310524F0909372028093C0
:1030900071028C30910509F01ECC80917B029091D9
:1030A0007C02069709F0DECC10927E0210927D021F
:1030B000C5CC8430910509F420CE8630910509F005
:1030C000B1CD20912B0230912C022730310524F014
:1030D00090932C0280932B028C30910509F0B2CD95
:1030E0008091350290913602069709F072CE1092C7
:1030F00038021092370259CE8430910509F4CCCEB3
:103100008630910509F0C3C820914D0230914E02DE
:103110002730310524F090934E0280934D028C307D
:10312000910509F0C4C88091570290915802069702
:1031300009F01ECF10925A021092590205CFFB01DE
:10314000DC0102C005900D9241505040D8F708951F
:103150000E94EA1808F481E00895E89409C097FBFA
:103160003EF490958095709561957F4F8F4F9F4F5E
:103170009923A9F0F92F96E9BB279395F6958795A2
:1031800077956795B795F111F8CFFAF4BB0F11F465
:1031900060FF1BC06F5F7F4F8F4F9F4F16C088230C
:1031A00011F096E911C0772321F09EE8872F762F42
:1031B00005C0662371F096E8862F70E060E02AF083
:1031C0009A95660F771F881FDAF7880F969587956F
:1031D00097F90895990F0008550FAA0BE0E8FEEF44
:1031E00016161706E807F907C0F012161306E407CB
:1031F000F50798F0621B730B840B950B39F40A26C4
:1032000061F0232B242B252B21F408950A2609F4A1
:10321000A140A6958FEF811D811D08950E9421195F
:103220000C9492190E94841938F00E948B1920F096
:10323000952311F00C947B190C94811911240C9492
:10324000C6190E94A31970F3959FC1F3950F50E022
:10325000551F629FF001729FBB27F00DB11D639F48
:10326000AA27F00DB11DAA1F649F6627B00DA11DEE
:10327000661F829F2227B00DA11D621F739FB00D94
:10328000A11D621F839FA00D611D221F749F332704
:10329000A00D611D231F849F600D211D822F762F9D
:1032A0006A2F11249F5750409AF0F1F088234AF07A
:1032B000EE0FFF1FBB1F661F771F881F91505040E6
:1032C000A9F79E3F510580F00C947B190C94C61908
:1032D0005F3FE4F3983ED4F3869577956795B7956D
:1032E000F795E7959F5FC1F7FE2B880F911D969587
:1032F000879597F9089597F99F6780E870E060E0F7
:1033000008959FEF80EC089500240A94161617067E
:1033100018060906089500240A94121613061406C6
:1033200005060895092E0394000C11F4882352F029
:10333000BB0F40F4BF2B11F460FF04C06F5F7F4FE1
:103340008F4F9F4F089557FD9058440F551F59F0C8
:103350005F3F71F04795880F97FB991F61F09F3F82
:1033600079F087950895121613061406551FF2CFAB
:103370004695F1DF08C0161617061806991FF1CFFB
:1033800086957105610508940895E894BB27662722
:103390007727CB0197F908955058BB27AA270E9499
:1033A000E4190C9492190E94841938F00E948B1928
:1033B00020F039F49F3F19F426F40C9481190EF48F
:1033C000E095E7FB0C947B19E92F0E94A31958F3B1
:1033D000BA17620773078407950720F079F4A6F5FA
:1033E0000C94C5190EF4E0950B2EBA2FA02D0B01ED
:1033F000B90190010C01CA01A0011124FF27591B3A
:1034000099F0593F50F4503E68F11A16F040A22F3F
:10341000232F342F4427585FF3CF469537952795B0
:10342000A795F0405395C9F77EF41F16BA0B620BAF
:10343000730B840BBAF09150A1F0FF0FBB1F661FF6
:10344000771F881FC2F70EC0BA0F621F731F841F39
:1034500048F4879577956795B795F7959E3F08F05F
:10346000B0CF9395880F08F09927EE0F9795879521
:1034700008950E94AB1988F09F5798F0B92F9927AB
:10348000B751B0F0E1F0660F771F881F991F1AF04F
:10349000BA95C9F714C0B13091F00E94C519B1E0D6
:1034A00008950C94C519672F782F8827B85F39F0D5
:1034B000B93FCCF3869577956795B395D9F73EF4E8
:1034C00090958095709561957F4F8F4F9F4F089590
:1034D0000E94EA1808F48FEF08950E94EA18880BFA
:1034E000990B0895991B79E004C0991F961708F06D
:1034F000961B881F7A95C9F780950895AA1BBB1B58
:1035000051E107C0AA1FBB1FA617B70710F0A61BE3
:10351000B70B881F991F5A95A9F780959095BC0104
:10352000CD010895A1E21A2EAA1BBB1BFD010DC0FF
:10353000AA1FBB1FEE1FFF1FA217B307E407F50763
:1035400020F0A21BB30BE40BF50B661F771F881F3F
:10355000991F1A9469F760957095809590959B01D5
:10356000AC01BD01CF010895EE0FFF1F0590F4914E
:10357000E02D09942A193B094C095D096E097F0960
:10358000800B910B08950F931F93CF93DF9382309D
:10359000910510F482E090E0E091DE03F091DF030A
:1035A00030E020E0B0E0A0E0309799F4211531053B
:1035B00009F44AC0281B390B24303105D8F58A811B
:1035C0009B816115710589F1FB0193838283FE0163
:1035D00011C0408151810281138148175907E0F0E1
:1035E0004817590799F4109761F012960C931297A7
:1035F00013961C933296CF01DF91CF911F910F91BB
:1036000008950093DE031093DF03F4CF21153105F5
:1036100051F04217530738F0A901DB019A01BD01AF
:10362000DF01F801C1CFEF01F9CF9093DF03809361
:10363000DE03CDCFFE01E20FF31F81939193225061
:10364000310939832883D7CF2091DC033091DD0302
:10365000232B41F420910601309107013093DD03C3
:103660002093DC03209104013091050121153105DF
:1036700041F42DB73EB74091080150910901241B38
:10368000350BE091DC03F091DD03E217F307A0F4C2
:103690002E1B3F0B2817390778F0AC014E5F5F4FA8
:1036A0002417350748F04E0F5F1F5093DD034093FA
:1036B000DC03819391939FCFF0E0E0E09CCFCF9328
:1036C000DF930097E9F0FC01329713821282A091F8
:1036D000DE03B091DF03ED0130E020E01097A1F4AC
:1036E00020813181820F931F2091DC033091DD0313
:1036F0002817390709F061C0F093DD03E093DC037C
:10370000DF91CF910895EA01CE17DF07E8F54A81EE
:103710005B819E0141155105B1F7E901FB83EA8305
:1037200049915991C40FD51FEC17FD0761F48081B1
:1037300091810296840F951FE90199838883828184
:1037400093819B838A83F0E0E0E012968D919C91B7
:1037500013970097B9F52D913C911197CD010296E1
:10376000820F931F2091DC033091DD032817390766
:1037700039F6309751F51092DF031092DE03B093C3
:10378000DD03A093DC03BCCFD383C283408151818E
:10379000840F951FC817D90761F44E5F5F4F88816A
:1037A0009981480F591F518340838A819B8193835C
:1037B00082832115310509F0B0CFF093DF03E09348
:1037C000DE039ECFFD01DC01C0CF13821282D7CF72
:1037D000F894FFCFFFFF01000000E003800000002D
:1037E00000004501A500D20092010301E100F500AF
:1037F0000000000072044504DB041B043E042B049B
:103800001C0400000000D408A500DB04DA046E618B
:103810006E00696E66006F7666000D0A00436F7574
:103820006C646E27742066696E64205254430052A3
:103830005443206C6F737420706F7765722C206C0A
:103840006574277320736574207468652074696DCE
:1038500065210054494D453A200030003A002020AF
:10386000202000444154453A200073746172743141
:103870003A200066696E7368203A200073746172A2
:1038800074323A20007374617274333A2000737496
:08389000617274343A2000005B
:107E0000112484B714BE81FFF0D085E080938100F7
:107E100082E08093C00088E18093C10086E0809377
:107E2000C20080E18093C4008EE0C9D0259A86E02C
:107E300020E33CEF91E0309385002093840096BBD3
:107E4000B09BFECF1D9AA8958150A9F7CC24DD24C4
:107E500088248394B5E0AB2EA1E19A2EF3E0BF2EE7
:107E6000A2D0813461F49FD0082FAFD0023811F036
:107E7000013811F484E001C083E08DD089C08234E0
:107E800011F484E103C0853419F485E0A6D080C0E4
:107E9000853579F488D0E82EFF2485D0082F10E0AE
:107EA000102F00270E291F29000F111F8ED06801E7
:107EB0006FC0863521F484E090D080E0DECF843638
:107EC00009F040C070D06FD0082F6DD080E0C81688
:107ED00080E7D80618F4F601B7BEE895C0E0D1E017
:107EE00062D089930C17E1F7F0E0CF16F0E7DF06D8
:107EF00018F0F601B7BEE89568D007B600FCFDCFD4
:107F0000A601A0E0B1E02C9130E011968C91119780
:107F100090E0982F8827822B932B1296FA010C0160
:107F200087BEE89511244E5F5F4FF1E0A038BF0790
:107F300051F7F601A7BEE89507B600FCFDCF97BE46
:107F4000E89526C08437B1F42ED02DD0F82E2BD052
:107F50003CD0F601EF2C8F010F5F1F4F84911BD097
:107F6000EA94F801C1F70894C11CD11CFA94CF0C13
:107F7000D11C0EC0853739F428D08EE10CD085E9AC
:107F80000AD08FE07ACF813511F488E018D01DD067
:107F900080E101D065CF982F8091C00085FFFCCF94
:107FA0009093C60008958091C00087FFFCCF809118
:107FB000C00084FD01C0A8958091C6000895E0E648
:107FC000F0E098E1908380830895EDDF803219F02E
:107FD00088E0F5DFFFCF84E1DECF1F93182FE3DFCA
:107FE0001150E9F7F2DF1F91089580E0E8DFEE27F6
:047FF000FF270994CA
:027FFE00040479
:00000001FF
